{"contracts/RugPullVerifier.sol":{"RugPullVerifier":{"abi":[{"inputs":[{"internalType":"address","name":"_stateConnector","type":"address"}],"stateMutability":"nonpayable","type":"constructor"},{"anonymous":false,"inputs":[{"indexed":true,"internalType":"string","name":"transactionHash","type":"string"},{"indexed":false,"internalType":"string","name":"riskHash","type":"string"},{"indexed":false,"internalType":"uint256","name":"timestamp","type":"uint256"},{"indexed":false,"internalType":"bool","name":"verified","type":"bool"}],"name":"RiskReportStored","type":"event"},{"anonymous":false,"inputs":[{"indexed":false,"internalType":"string","name":"transactionHash","type":"string"},{"indexed":false,"internalType":"bytes32","name":"requestId","type":"bytes32"}],"name":"VerificationRequested","type":"event"},{"inputs":[{"internalType":"string","name":"_transactionHash","type":"string"}],"name":"confirmVerification","outputs":[],"stateMutability":"nonpayable","type":"function"},{"inputs":[{"internalType":"string","name":"_transactionHash","type":"string"}],"name":"getRiskReport","outputs":[{"internalType":"string","name":"","type":"string"},{"internalType":"uint256","name":"","type":"uint256"},{"internalType":"bool","name":"","type":"bool"}],"stateMutability":"view","type":"function"},{"inputs":[{"internalType":"string","name":"","type":"string"}],"name":"riskReports","outputs":[{"internalType":"string","name":"transactionHash","type":"string"},{"internalType":"string","name":"riskHash","type":"string"},{"internalType":"uint256","name":"timestamp","type":"uint256"},{"internalType":"bool","name":"verifiedByFlare","type":"bool"}],"stateMutability":"view","type":"function"},{"inputs":[],"name":"stateConnector","outputs":[{"internalType":"address","name":"","type":"address"}],"stateMutability":"view","type":"function"},{"inputs":[{"internalType":"string","name":"_transactionHash","type":"string"},{"internalType":"string","name":"_riskHash","type":"string"}],"name":"storeAuditResult","outputs":[],"stateMutability":"nonpayable","type":"function"}],"evm":{"bytecode":{"linkReferences":{},"object":"60806040523480156200001157600080fd5b5060405162001081380380620010818339818101604052810190620000379190620000e9565b80600160006101000a81548173ffffffffffffffffffffffffffffffffffffffff021916908373ffffffffffffffffffffffffffffffffffffffff160217905550506200011b565b600080fd5b600073ffffffffffffffffffffffffffffffffffffffff82169050919050565b6000620000b18262000084565b9050919050565b620000c381620000a4565b8114620000cf57600080fd5b50565b600081519050620000e381620000b8565b92915050565b6000602082840312156200010257620001016200007f565b5b60006200011284828501620000d2565b91505092915050565b610f56806200012b6000396000f3fe608060405234801561001057600080fd5b50600436106100575760003560e01c8063025ecb321461005c57806308ede6a61461007a57806323b1d2c21461009657806336c1c973146100c8578063bde03d86146100fb575b600080fd5b610064610117565b60405161007191906106d9565b60405180910390f35b610094600480360381019061008f919061084e565b61013d565b005b6100b060048036038101906100ab919061084e565b6101e9565b6040516100bf9392919061094a565b60405180910390f35b6100e260048036038101906100dd919061084e565b6102f9565b6040516100f29493929190610988565b60405180910390f35b610115600480360381019061011091906109db565b61045c565b005b600160009054906101000a900473ffffffffffffffffffffffffffffffffffffffff1681565b6000808260405161014e9190610a8f565b9081526020016040518091039020600001805461016a90610ad5565b9050116101ac576040517f08c379a00000000000000000000000000000000000000000000000000000000081526004016101a390610b52565b60405180910390fd5b60016000826040516101be9190610a8f565b908152602001604051809103902060030160006101000a81548160ff02191690831515021790555050565b60606000806000846040516101fe9190610a8f565b908152602001604051809103902060010160008560405161021f9190610a8f565b9081526020016040518091039020600201546000866040516102419190610a8f565b908152602001604051809103902060030160009054906101000a900460ff1682805461026c90610ad5565b80601f016020809104026020016040519081016040528092919081815260200182805461029890610ad5565b80156102e55780601f106102ba576101008083540402835291602001916102e5565b820191906000526020600020905b8154815290600101906020018083116102c857829003601f168201915b505050505092509250925092509193909250565b60008180516020810182018051848252602083016020850120818352809550505050505060009150905080600001805461033290610ad5565b80601f016020809104026020016040519081016040528092919081815260200182805461035e90610ad5565b80156103ab5780601f10610380576101008083540402835291602001916103ab565b820191906000526020600020905b81548152906001019060200180831161038e57829003601f168201915b5050505050908060010180546103c090610ad5565b80601f01602080910402602001604051908101604052809291908181526020018280546103ec90610ad5565b80156104395780601f1061040e57610100808354040283529160200191610439565b820191906000526020600020905b81548152906001019060200180831161041c57829003601f168201915b5050505050908060020154908060030160009054906101000a900460ff16905084565b6000808360405161046d9190610a8f565b9081526020016040518091039020600001805461048990610ad5565b9050146104cb576040517f08c379a00000000000000000000000000000000000000000000000000000000081526004016104c290610bbe565b60405180910390fd5b6000600160009054906101000a900473ffffffffffffffffffffffffffffffffffffffff1673ffffffffffffffffffffffffffffffffffffffff16636cbff42a846040518263ffffffff1660e01b81526004016105289190610bde565b6020604051808303816000875af1158015610547573d6000803e3d6000fd5b505050506040513d601f19601f8201168201806040525081019061056b9190610c36565b90507fcb4efc405b00543d057b47dbeaf4292cbb3b07be86fbeaa9d4afd6080ec711da838260405161059e929190610c72565b60405180910390a16040518060800160405280848152602001838152602001428152602001600015158152506000846040516105da9190610a8f565b908152602001604051809103902060008201518160000190816105fd9190610e4e565b5060208201518160010190816106139190610e4e565b506040820151816002015560608201518160030160006101000a81548160ff0219169083151502179055509050508260405161064f9190610a8f565b60405180910390207f5612346dc6ac3a8321e455000733e54e2883e218f4adcd8880d499df9b39e3c98342600060405161068b9392919061094a565b60405180910390a2505050565b600073ffffffffffffffffffffffffffffffffffffffff82169050919050565b60006106c382610698565b9050919050565b6106d3816106b8565b82525050565b60006020820190506106ee60008301846106ca565b92915050565b6000604051905090565b600080fd5b600080fd5b600080fd5b600080fd5b6000601f19601f8301169050919050565b7f4e487b7100000000000000000000000000000000000000000000000000000000600052604160045260246000fd5b61075b82610712565b810181811067ffffffffffffffff8211171561077a57610779610723565b5b80604052505050565b600061078d6106f4565b90506107998282610752565b919050565b600067ffffffffffffffff8211156107b9576107b8610723565b5b6107c282610712565b9050602081019050919050565b82818337600083830152505050565b60006107f16107ec8461079e565b610783565b90508281526020810184848401111561080d5761080c61070d565b5b6108188482856107cf565b509392505050565b600082601f83011261083557610834610708565b5b81356108458482602086016107de565b91505092915050565b600060208284031215610864576108636106fe565b5b600082013567ffffffffffffffff81111561088257610881610703565b5b61088e84828501610820565b91505092915050565b600081519050919050565b600082825260208201905092915050565b60005b838110156108d15780820151818401526020810190506108b6565b60008484015250505050565b60006108e882610897565b6108f281856108a2565b93506109028185602086016108b3565b61090b81610712565b840191505092915050565b6000819050919050565b61092981610916565b82525050565b60008115159050919050565b6109448161092f565b82525050565b6000606082019050818103600083015261096481866108dd565b90506109736020830185610920565b610980604083018461093b565b949350505050565b600060808201905081810360008301526109a281876108dd565b905081810360208301526109b681866108dd565b90506109c56040830185610920565b6109d2606083018461093b565b95945050505050565b600080604083850312156109f2576109f16106fe565b5b600083013567ffffffffffffffff811115610a1057610a0f610703565b5b610a1c85828601610820565b925050602083013567ffffffffffffffff811115610a3d57610a3c610703565b5b610a4985828601610820565b9150509250929050565b600081905092915050565b6000610a6982610897565b610a738185610a53565b9350610a838185602086016108b3565b80840191505092915050565b6000610a9b8284610a5e565b915081905092915050565b7f4e487b7100000000000000000000000000000000000000000000000000000000600052602260045260246000fd5b60006002820490506001821680610aed57607f821691505b602082108103610b0057610aff610aa6565b5b50919050565b7f5472616e73616374696f6e206e6f7420666f756e640000000000000000000000600082015250565b6000610b3c6015836108a2565b9150610b4782610b06565b602082019050919050565b60006020820190508181036000830152610b6b81610b2f565b9050919050565b7f5472616e73616374696f6e20616c726561647920766572696669656400000000600082015250565b6000610ba8601c836108a2565b9150610bb382610b72565b602082019050919050565b60006020820190508181036000830152610bd781610b9b565b9050919050565b60006020820190508181036000830152610bf881846108dd565b905092915050565b6000819050919050565b610c1381610c00565b8114610c1e57600080fd5b50565b600081519050610c3081610c0a565b92915050565b600060208284031215610c4c57610c4b6106fe565b5b6000610c5a84828501610c21565b91505092915050565b610c6c81610c00565b82525050565b60006040820190508181036000830152610c8c81856108dd565b9050610c9b6020830184610c63565b9392505050565b60008190508160005260206000209050919050565b60006020601f8301049050919050565b600082821b905092915050565b600060088302610d047fffffffffffffffffffffffffffffffffffffffffffffffffffffffffffffffff82610cc7565b610d0e8683610cc7565b95508019841693508086168417925050509392505050565b6000819050919050565b6000610d4b610d46610d4184610916565b610d26565b610916565b9050919050565b6000819050919050565b610d6583610d30565b610d79610d7182610d52565b848454610cd4565b825550505050565b600090565b610d8e610d81565b610d99818484610d5c565b505050565b5b81811015610dbd57610db2600082610d86565b600181019050610d9f565b5050565b601f821115610e0257610dd381610ca2565b610ddc84610cb7565b81016020851015610deb578190505b610dff610df785610cb7565b830182610d9e565b50505b505050565b600082821c905092915050565b6000610e2560001984600802610e07565b1980831691505092915050565b6000610e3e8383610e14565b9150826002028217905092915050565b610e5782610897565b67ffffffffffffffff811115610e7057610e6f610723565b5b610e7a8254610ad5565b610e85828285610dc1565b600060209050601f831160018114610eb85760008415610ea6578287015190505b610eb08582610e32565b865550610f18565b601f198416610ec686610ca2565b60005b82811015610eee57848901518255600182019150602085019450602081019050610ec9565b86831015610f0b5784890151610f07601f891682610e14565b8355505b6001600288020188555050505b50505050505056fea26469706673582212201ef2fe463c7721a678456aef694f919259ade3b6431f0de6f0c865c07a1fe8c264736f6c63430008140033","opcodes":"PUSH1 0x80 PUSH1 0x40 MSTORE CALLVALUE DUP1 ISZERO PUSH3 0x11 JUMPI PUSH1 0x0 DUP1 REVERT JUMPDEST POP PUSH1 0x40 MLOAD PUSH3 0x1081 CODESIZE SUB DUP1 PUSH3 0x1081 DUP4 CODECOPY DUP2 DUP2 ADD PUSH1 0x40 MSTORE DUP2 ADD SWAP1 PUSH3 0x37 SWAP2 SWAP1 PUSH3 0xE9 JUMP JUMPDEST DUP1 PUSH1 0x1 PUSH1 0x0 PUSH2 0x100 EXP DUP2 SLOAD DUP2 PUSH20 0xFFFFFFFFFFFFFFFFFFFFFFFFFFFFFFFFFFFFFFFF MUL NOT AND SWAP1 DUP4 PUSH20 0xFFFFFFFFFFFFFFFFFFFFFFFFFFFFFFFFFFFFFFFF AND MUL OR SWAP1 SSTORE POP POP PUSH3 0x11B JUMP JUMPDEST PUSH1 0x0 DUP1 REVERT JUMPDEST PUSH1 0x0 PUSH20 0xFFFFFFFFFFFFFFFFFFFFFFFFFFFFFFFFFFFFFFFF DUP3 AND SWAP1 POP SWAP2 SWAP1 POP JUMP JUMPDEST PUSH1 0x0 PUSH3 0xB1 DUP3 PUSH3 0x84 JUMP JUMPDEST SWAP1 POP SWAP2 SWAP1 POP JUMP JUMPDEST PUSH3 0xC3 DUP2 PUSH3 0xA4 JUMP JUMPDEST DUP2 EQ PUSH3 0xCF JUMPI PUSH1 0x0 DUP1 REVERT JUMPDEST POP JUMP JUMPDEST PUSH1 0x0 DUP2 MLOAD SWAP1 POP PUSH3 0xE3 DUP2 PUSH3 0xB8 JUMP JUMPDEST SWAP3 SWAP2 POP POP JUMP JUMPDEST PUSH1 0x0 PUSH1 0x20 DUP3 DUP5 SUB SLT ISZERO PUSH3 0x102 JUMPI PUSH3 0x101 PUSH3 0x7F JUMP JUMPDEST JUMPDEST PUSH1 0x0 PUSH3 0x112 DUP5 DUP3 DUP6 ADD PUSH3 0xD2 JUMP JUMPDEST SWAP2 POP POP SWAP3 SWAP2 POP POP JUMP JUMPDEST PUSH2 0xF56 DUP1 PUSH3 0x12B PUSH1 0x0 CODECOPY PUSH1 0x0 RETURN INVALID PUSH1 0x80 PUSH1 0x40 MSTORE CALLVALUE DUP1 ISZERO PUSH2 0x10 JUMPI PUSH1 0x0 DUP1 REVERT JUMPDEST POP PUSH1 0x4 CALLDATASIZE LT PUSH2 0x57 JUMPI PUSH1 0x0 CALLDATALOAD PUSH1 0xE0 SHR DUP1 PUSH4 0x25ECB32 EQ PUSH2 0x5C JUMPI DUP1 PUSH4 0x8EDE6A6 EQ PUSH2 0x7A JUMPI DUP1 PUSH4 0x23B1D2C2 EQ PUSH2 0x96 JUMPI DUP1 PUSH4 0x36C1C973 EQ PUSH2 0xC8 JUMPI DUP1 PUSH4 0xBDE03D86 EQ PUSH2 0xFB JUMPI JUMPDEST PUSH1 0x0 DUP1 REVERT JUMPDEST PUSH2 0x64 PUSH2 0x117 JUMP JUMPDEST PUSH1 0x40 MLOAD PUSH2 0x71 SWAP2 SWAP1 PUSH2 0x6D9 JUMP JUMPDEST PUSH1 0x40 MLOAD DUP1 SWAP2 SUB SWAP1 RETURN JUMPDEST PUSH2 0x94 PUSH1 0x4 DUP1 CALLDATASIZE SUB DUP2 ADD SWAP1 PUSH2 0x8F SWAP2 SWAP1 PUSH2 0x84E JUMP JUMPDEST PUSH2 0x13D JUMP JUMPDEST STOP JUMPDEST PUSH2 0xB0 PUSH1 0x4 DUP1 CALLDATASIZE SUB DUP2 ADD SWAP1 PUSH2 0xAB SWAP2 SWAP1 PUSH2 0x84E JUMP JUMPDEST PUSH2 0x1E9 JUMP JUMPDEST PUSH1 0x40 MLOAD PUSH2 0xBF SWAP4 SWAP3 SWAP2 SWAP1 PUSH2 0x94A JUMP JUMPDEST PUSH1 0x40 MLOAD DUP1 SWAP2 SUB SWAP1 RETURN JUMPDEST PUSH2 0xE2 PUSH1 0x4 DUP1 CALLDATASIZE SUB DUP2 ADD SWAP1 PUSH2 0xDD SWAP2 SWAP1 PUSH2 0x84E JUMP JUMPDEST PUSH2 0x2F9 JUMP JUMPDEST PUSH1 0x40 MLOAD PUSH2 0xF2 SWAP5 SWAP4 SWAP3 SWAP2 SWAP1 PUSH2 0x988 JUMP JUMPDEST PUSH1 0x40 MLOAD DUP1 SWAP2 SUB SWAP1 RETURN JUMPDEST PUSH2 0x115 PUSH1 0x4 DUP1 CALLDATASIZE SUB DUP2 ADD SWAP1 PUSH2 0x110 SWAP2 SWAP1 PUSH2 0x9DB JUMP JUMPDEST PUSH2 0x45C JUMP JUMPDEST STOP JUMPDEST PUSH1 0x1 PUSH1 0x0 SWAP1 SLOAD SWAP1 PUSH2 0x100 EXP SWAP1 DIV PUSH20 0xFFFFFFFFFFFFFFFFFFFFFFFFFFFFFFFFFFFFFFFF AND DUP2 JUMP JUMPDEST PUSH1 0x0 DUP1 DUP3 PUSH1 0x40 MLOAD PUSH2 0x14E SWAP2 SWAP1 PUSH2 0xA8F JUMP JUMPDEST SWAP1 DUP2 MSTORE PUSH1 0x20 ADD PUSH1 0x40 MLOAD DUP1 SWAP2 SUB SWAP1 KECCAK256 PUSH1 0x0 ADD DUP1 SLOAD PUSH2 0x16A SWAP1 PUSH2 0xAD5 JUMP JUMPDEST SWAP1 POP GT PUSH2 0x1AC JUMPI PUSH1 0x40 MLOAD PUSH32 0x8C379A000000000000000000000000000000000000000000000000000000000 DUP2 MSTORE PUSH1 0x4 ADD PUSH2 0x1A3 SWAP1 PUSH2 0xB52 JUMP JUMPDEST PUSH1 0x40 MLOAD DUP1 SWAP2 SUB SWAP1 REVERT JUMPDEST PUSH1 0x1 PUSH1 0x0 DUP3 PUSH1 0x40 MLOAD PUSH2 0x1BE SWAP2 SWAP1 PUSH2 0xA8F JUMP JUMPDEST SWAP1 DUP2 MSTORE PUSH1 0x20 ADD PUSH1 0x40 MLOAD DUP1 SWAP2 SUB SWAP1 KECCAK256 PUSH1 0x3 ADD PUSH1 0x0 PUSH2 0x100 EXP DUP2 SLOAD DUP2 PUSH1 0xFF MUL NOT AND SWAP1 DUP4 ISZERO ISZERO MUL OR SWAP1 SSTORE POP POP JUMP JUMPDEST PUSH1 0x60 PUSH1 0x0 DUP1 PUSH1 0x0 DUP5 PUSH1 0x40 MLOAD PUSH2 0x1FE SWAP2 SWAP1 PUSH2 0xA8F JUMP JUMPDEST SWAP1 DUP2 MSTORE PUSH1 0x20 ADD PUSH1 0x40 MLOAD DUP1 SWAP2 SUB SWAP1 KECCAK256 PUSH1 0x1 ADD PUSH1 0x0 DUP6 PUSH1 0x40 MLOAD PUSH2 0x21F SWAP2 SWAP1 PUSH2 0xA8F JUMP JUMPDEST SWAP1 DUP2 MSTORE PUSH1 0x20 ADD PUSH1 0x40 MLOAD DUP1 SWAP2 SUB SWAP1 KECCAK256 PUSH1 0x2 ADD SLOAD PUSH1 0x0 DUP7 PUSH1 0x40 MLOAD PUSH2 0x241 SWAP2 SWAP1 PUSH2 0xA8F JUMP JUMPDEST SWAP1 DUP2 MSTORE PUSH1 0x20 ADD PUSH1 0x40 MLOAD DUP1 SWAP2 SUB SWAP1 KECCAK256 PUSH1 0x3 ADD PUSH1 0x0 SWAP1 SLOAD SWAP1 PUSH2 0x100 EXP SWAP1 DIV PUSH1 0xFF AND DUP3 DUP1 SLOAD PUSH2 0x26C SWAP1 PUSH2 0xAD5 JUMP JUMPDEST DUP1 PUSH1 0x1F ADD PUSH1 0x20 DUP1 SWAP2 DIV MUL PUSH1 0x20 ADD PUSH1 0x40 MLOAD SWAP1 DUP2 ADD PUSH1 0x40 MSTORE DUP1 SWAP3 SWAP2 SWAP1 DUP2 DUP2 MSTORE PUSH1 0x20 ADD DUP3 DUP1 SLOAD PUSH2 0x298 SWAP1 PUSH2 0xAD5 JUMP JUMPDEST DUP1 ISZERO PUSH2 0x2E5 JUMPI DUP1 PUSH1 0x1F LT PUSH2 0x2BA JUMPI PUSH2 0x100 DUP1 DUP4 SLOAD DIV MUL DUP4 MSTORE SWAP2 PUSH1 0x20 ADD SWAP2 PUSH2 0x2E5 JUMP JUMPDEST DUP3 ADD SWAP2 SWAP1 PUSH1 0x0 MSTORE PUSH1 0x20 PUSH1 0x0 KECCAK256 SWAP1 JUMPDEST DUP2 SLOAD DUP2 MSTORE SWAP1 PUSH1 0x1 ADD SWAP1 PUSH1 0x20 ADD DUP1 DUP4 GT PUSH2 0x2C8 JUMPI DUP3 SWAP1 SUB PUSH1 0x1F AND DUP3 ADD SWAP2 JUMPDEST POP POP POP POP POP SWAP3 POP SWAP3 POP SWAP3 POP SWAP3 POP SWAP2 SWAP4 SWAP1 SWAP3 POP JUMP JUMPDEST PUSH1 0x0 DUP2 DUP1 MLOAD PUSH1 0x20 DUP2 ADD DUP3 ADD DUP1 MLOAD DUP5 DUP3 MSTORE PUSH1 0x20 DUP4 ADD PUSH1 0x20 DUP6 ADD KECCAK256 DUP2 DUP4 MSTORE DUP1 SWAP6 POP POP POP POP POP POP PUSH1 0x0 SWAP2 POP SWAP1 POP DUP1 PUSH1 0x0 ADD DUP1 SLOAD PUSH2 0x332 SWAP1 PUSH2 0xAD5 JUMP JUMPDEST DUP1 PUSH1 0x1F ADD PUSH1 0x20 DUP1 SWAP2 DIV MUL PUSH1 0x20 ADD PUSH1 0x40 MLOAD SWAP1 DUP2 ADD PUSH1 0x40 MSTORE DUP1 SWAP3 SWAP2 SWAP1 DUP2 DUP2 MSTORE PUSH1 0x20 ADD DUP3 DUP1 SLOAD PUSH2 0x35E SWAP1 PUSH2 0xAD5 JUMP JUMPDEST DUP1 ISZERO PUSH2 0x3AB JUMPI DUP1 PUSH1 0x1F LT PUSH2 0x380 JUMPI PUSH2 0x100 DUP1 DUP4 SLOAD DIV MUL DUP4 MSTORE SWAP2 PUSH1 0x20 ADD SWAP2 PUSH2 0x3AB JUMP JUMPDEST DUP3 ADD SWAP2 SWAP1 PUSH1 0x0 MSTORE PUSH1 0x20 PUSH1 0x0 KECCAK256 SWAP1 JUMPDEST DUP2 SLOAD DUP2 MSTORE SWAP1 PUSH1 0x1 ADD SWAP1 PUSH1 0x20 ADD DUP1 DUP4 GT PUSH2 0x38E JUMPI DUP3 SWAP1 SUB PUSH1 0x1F AND DUP3 ADD SWAP2 JUMPDEST POP POP POP POP POP SWAP1 DUP1 PUSH1 0x1 ADD DUP1 SLOAD PUSH2 0x3C0 SWAP1 PUSH2 0xAD5 JUMP JUMPDEST DUP1 PUSH1 0x1F ADD PUSH1 0x20 DUP1 SWAP2 DIV MUL PUSH1 0x20 ADD PUSH1 0x40 MLOAD SWAP1 DUP2 ADD PUSH1 0x40 MSTORE DUP1 SWAP3 SWAP2 SWAP1 DUP2 DUP2 MSTORE PUSH1 0x20 ADD DUP3 DUP1 SLOAD PUSH2 0x3EC SWAP1 PUSH2 0xAD5 JUMP JUMPDEST DUP1 ISZERO PUSH2 0x439 JUMPI DUP1 PUSH1 0x1F LT PUSH2 0x40E JUMPI PUSH2 0x100 DUP1 DUP4 SLOAD DIV MUL DUP4 MSTORE SWAP2 PUSH1 0x20 ADD SWAP2 PUSH2 0x439 JUMP JUMPDEST DUP3 ADD SWAP2 SWAP1 PUSH1 0x0 MSTORE PUSH1 0x20 PUSH1 0x0 KECCAK256 SWAP1 JUMPDEST DUP2 SLOAD DUP2 MSTORE SWAP1 PUSH1 0x1 ADD SWAP1 PUSH1 0x20 ADD DUP1 DUP4 GT PUSH2 0x41C JUMPI DUP3 SWAP1 SUB PUSH1 0x1F AND DUP3 ADD SWAP2 JUMPDEST POP POP POP POP POP SWAP1 DUP1 PUSH1 0x2 ADD SLOAD SWAP1 DUP1 PUSH1 0x3 ADD PUSH1 0x0 SWAP1 SLOAD SWAP1 PUSH2 0x100 EXP SWAP1 DIV PUSH1 0xFF AND SWAP1 POP DUP5 JUMP JUMPDEST PUSH1 0x0 DUP1 DUP4 PUSH1 0x40 MLOAD PUSH2 0x46D SWAP2 SWAP1 PUSH2 0xA8F JUMP JUMPDEST SWAP1 DUP2 MSTORE PUSH1 0x20 ADD PUSH1 0x40 MLOAD DUP1 SWAP2 SUB SWAP1 KECCAK256 PUSH1 0x0 ADD DUP1 SLOAD PUSH2 0x489 SWAP1 PUSH2 0xAD5 JUMP JUMPDEST SWAP1 POP EQ PUSH2 0x4CB JUMPI PUSH1 0x40 MLOAD PUSH32 0x8C379A000000000000000000000000000000000000000000000000000000000 DUP2 MSTORE PUSH1 0x4 ADD PUSH2 0x4C2 SWAP1 PUSH2 0xBBE JUMP JUMPDEST PUSH1 0x40 MLOAD DUP1 SWAP2 SUB SWAP1 REVERT JUMPDEST PUSH1 0x0 PUSH1 0x1 PUSH1 0x0 SWAP1 SLOAD SWAP1 PUSH2 0x100 EXP SWAP1 DIV PUSH20 0xFFFFFFFFFFFFFFFFFFFFFFFFFFFFFFFFFFFFFFFF AND PUSH20 0xFFFFFFFFFFFFFFFFFFFFFFFFFFFFFFFFFFFFFFFF AND PUSH4 0x6CBFF42A DUP5 PUSH1 0x40 MLOAD DUP3 PUSH4 0xFFFFFFFF AND PUSH1 0xE0 SHL DUP2 MSTORE PUSH1 0x4 ADD PUSH2 0x528 SWAP2 SWAP1 PUSH2 0xBDE JUMP JUMPDEST PUSH1 0x20 PUSH1 0x40 MLOAD DUP1 DUP4 SUB DUP2 PUSH1 0x0 DUP8 GAS CALL ISZERO DUP1 ISZERO PUSH2 0x547 JUMPI RETURNDATASIZE PUSH1 0x0 DUP1 RETURNDATACOPY RETURNDATASIZE PUSH1 0x0 REVERT JUMPDEST POP POP POP POP PUSH1 0x40 MLOAD RETURNDATASIZE PUSH1 0x1F NOT PUSH1 0x1F DUP3 ADD AND DUP3 ADD DUP1 PUSH1 0x40 MSTORE POP DUP2 ADD SWAP1 PUSH2 0x56B SWAP2 SWAP1 PUSH2 0xC36 JUMP JUMPDEST SWAP1 POP PUSH32 0xCB4EFC405B00543D057B47DBEAF4292CBB3B07BE86FBEAA9D4AFD6080EC711DA DUP4 DUP3 PUSH1 0x40 MLOAD PUSH2 0x59E SWAP3 SWAP2 SWAP1 PUSH2 0xC72 JUMP JUMPDEST PUSH1 0x40 MLOAD DUP1 SWAP2 SUB SWAP1 LOG1 PUSH1 0x40 MLOAD DUP1 PUSH1 0x80 ADD PUSH1 0x40 MSTORE DUP1 DUP5 DUP2 MSTORE PUSH1 0x20 ADD DUP4 DUP2 MSTORE PUSH1 0x20 ADD TIMESTAMP DUP2 MSTORE PUSH1 0x20 ADD PUSH1 0x0 ISZERO ISZERO DUP2 MSTORE POP PUSH1 0x0 DUP5 PUSH1 0x40 MLOAD PUSH2 0x5DA SWAP2 SWAP1 PUSH2 0xA8F JUMP JUMPDEST SWAP1 DUP2 MSTORE PUSH1 0x20 ADD PUSH1 0x40 MLOAD DUP1 SWAP2 SUB SWAP1 KECCAK256 PUSH1 0x0 DUP3 ADD MLOAD DUP2 PUSH1 0x0 ADD SWAP1 DUP2 PUSH2 0x5FD SWAP2 SWAP1 PUSH2 0xE4E JUMP JUMPDEST POP PUSH1 0x20 DUP3 ADD MLOAD DUP2 PUSH1 0x1 ADD SWAP1 DUP2 PUSH2 0x613 SWAP2 SWAP1 PUSH2 0xE4E JUMP JUMPDEST POP PUSH1 0x40 DUP3 ADD MLOAD DUP2 PUSH1 0x2 ADD SSTORE PUSH1 0x60 DUP3 ADD MLOAD DUP2 PUSH1 0x3 ADD PUSH1 0x0 PUSH2 0x100 EXP DUP2 SLOAD DUP2 PUSH1 0xFF MUL NOT AND SWAP1 DUP4 ISZERO ISZERO MUL OR SWAP1 SSTORE POP SWAP1 POP POP DUP3 PUSH1 0x40 MLOAD PUSH2 0x64F SWAP2 SWAP1 PUSH2 0xA8F JUMP JUMPDEST PUSH1 0x40 MLOAD DUP1 SWAP2 SUB SWAP1 KECCAK256 PUSH32 0x5612346DC6AC3A8321E455000733E54E2883E218F4ADCD8880D499DF9B39E3C9 DUP4 TIMESTAMP PUSH1 0x0 PUSH1 0x40 MLOAD PUSH2 0x68B SWAP4 SWAP3 SWAP2 SWAP1 PUSH2 0x94A JUMP JUMPDEST PUSH1 0x40 MLOAD DUP1 SWAP2 SUB SWAP1 LOG2 POP POP POP JUMP JUMPDEST PUSH1 0x0 PUSH20 0xFFFFFFFFFFFFFFFFFFFFFFFFFFFFFFFFFFFFFFFF DUP3 AND SWAP1 POP SWAP2 SWAP1 POP JUMP JUMPDEST PUSH1 0x0 PUSH2 0x6C3 DUP3 PUSH2 0x698 JUMP JUMPDEST SWAP1 POP SWAP2 SWAP1 POP JUMP JUMPDEST PUSH2 0x6D3 DUP2 PUSH2 0x6B8 JUMP JUMPDEST DUP3 MSTORE POP POP JUMP JUMPDEST PUSH1 0x0 PUSH1 0x20 DUP3 ADD SWAP1 POP PUSH2 0x6EE PUSH1 0x0 DUP4 ADD DUP5 PUSH2 0x6CA JUMP JUMPDEST SWAP3 SWAP2 POP POP JUMP JUMPDEST PUSH1 0x0 PUSH1 0x40 MLOAD SWAP1 POP SWAP1 JUMP JUMPDEST PUSH1 0x0 DUP1 REVERT JUMPDEST PUSH1 0x0 DUP1 REVERT JUMPDEST PUSH1 0x0 DUP1 REVERT JUMPDEST PUSH1 0x0 DUP1 REVERT JUMPDEST PUSH1 0x0 PUSH1 0x1F NOT PUSH1 0x1F DUP4 ADD AND SWAP1 POP SWAP2 SWAP1 POP JUMP JUMPDEST PUSH32 0x4E487B7100000000000000000000000000000000000000000000000000000000 PUSH1 0x0 MSTORE PUSH1 0x41 PUSH1 0x4 MSTORE PUSH1 0x24 PUSH1 0x0 REVERT JUMPDEST PUSH2 0x75B DUP3 PUSH2 0x712 JUMP JUMPDEST DUP2 ADD DUP2 DUP2 LT PUSH8 0xFFFFFFFFFFFFFFFF DUP3 GT OR ISZERO PUSH2 0x77A JUMPI PUSH2 0x779 PUSH2 0x723 JUMP JUMPDEST JUMPDEST DUP1 PUSH1 0x40 MSTORE POP POP POP JUMP JUMPDEST PUSH1 0x0 PUSH2 0x78D PUSH2 0x6F4 JUMP JUMPDEST SWAP1 POP PUSH2 0x799 DUP3 DUP3 PUSH2 0x752 JUMP JUMPDEST SWAP2 SWAP1 POP JUMP JUMPDEST PUSH1 0x0 PUSH8 0xFFFFFFFFFFFFFFFF DUP3 GT ISZERO PUSH2 0x7B9 JUMPI PUSH2 0x7B8 PUSH2 0x723 JUMP JUMPDEST JUMPDEST PUSH2 0x7C2 DUP3 PUSH2 0x712 JUMP JUMPDEST SWAP1 POP PUSH1 0x20 DUP2 ADD SWAP1 POP SWAP2 SWAP1 POP JUMP JUMPDEST DUP3 DUP2 DUP4 CALLDATACOPY PUSH1 0x0 DUP4 DUP4 ADD MSTORE POP POP POP JUMP JUMPDEST PUSH1 0x0 PUSH2 0x7F1 PUSH2 0x7EC DUP5 PUSH2 0x79E JUMP JUMPDEST PUSH2 0x783 JUMP JUMPDEST SWAP1 POP DUP3 DUP2 MSTORE PUSH1 0x20 DUP2 ADD DUP5 DUP5 DUP5 ADD GT ISZERO PUSH2 0x80D JUMPI PUSH2 0x80C PUSH2 0x70D JUMP JUMPDEST JUMPDEST PUSH2 0x818 DUP5 DUP3 DUP6 PUSH2 0x7CF JUMP JUMPDEST POP SWAP4 SWAP3 POP POP POP JUMP JUMPDEST PUSH1 0x0 DUP3 PUSH1 0x1F DUP4 ADD SLT PUSH2 0x835 JUMPI PUSH2 0x834 PUSH2 0x708 JUMP JUMPDEST JUMPDEST DUP2 CALLDATALOAD PUSH2 0x845 DUP5 DUP3 PUSH1 0x20 DUP7 ADD PUSH2 0x7DE JUMP JUMPDEST SWAP2 POP POP SWAP3 SWAP2 POP POP JUMP JUMPDEST PUSH1 0x0 PUSH1 0x20 DUP3 DUP5 SUB SLT ISZERO PUSH2 0x864 JUMPI PUSH2 0x863 PUSH2 0x6FE JUMP JUMPDEST JUMPDEST PUSH1 0x0 DUP3 ADD CALLDATALOAD PUSH8 0xFFFFFFFFFFFFFFFF DUP2 GT ISZERO PUSH2 0x882 JUMPI PUSH2 0x881 PUSH2 0x703 JUMP JUMPDEST JUMPDEST PUSH2 0x88E DUP5 DUP3 DUP6 ADD PUSH2 0x820 JUMP JUMPDEST SWAP2 POP POP SWAP3 SWAP2 POP POP JUMP JUMPDEST PUSH1 0x0 DUP2 MLOAD SWAP1 POP SWAP2 SWAP1 POP JUMP JUMPDEST PUSH1 0x0 DUP3 DUP3 MSTORE PUSH1 0x20 DUP3 ADD SWAP1 POP SWAP3 SWAP2 POP POP JUMP JUMPDEST PUSH1 0x0 JUMPDEST DUP4 DUP2 LT ISZERO PUSH2 0x8D1 JUMPI DUP1 DUP3 ADD MLOAD DUP2 DUP5 ADD MSTORE PUSH1 0x20 DUP2 ADD SWAP1 POP PUSH2 0x8B6 JUMP JUMPDEST PUSH1 0x0 DUP5 DUP5 ADD MSTORE POP POP POP POP JUMP JUMPDEST PUSH1 0x0 PUSH2 0x8E8 DUP3 PUSH2 0x897 JUMP JUMPDEST PUSH2 0x8F2 DUP2 DUP6 PUSH2 0x8A2 JUMP JUMPDEST SWAP4 POP PUSH2 0x902 DUP2 DUP6 PUSH1 0x20 DUP7 ADD PUSH2 0x8B3 JUMP JUMPDEST PUSH2 0x90B DUP2 PUSH2 0x712 JUMP JUMPDEST DUP5 ADD SWAP2 POP POP SWAP3 SWAP2 POP POP JUMP JUMPDEST PUSH1 0x0 DUP2 SWAP1 POP SWAP2 SWAP1 POP JUMP JUMPDEST PUSH2 0x929 DUP2 PUSH2 0x916 JUMP JUMPDEST DUP3 MSTORE POP POP JUMP JUMPDEST PUSH1 0x0 DUP2 ISZERO ISZERO SWAP1 POP SWAP2 SWAP1 POP JUMP JUMPDEST PUSH2 0x944 DUP2 PUSH2 0x92F JUMP JUMPDEST DUP3 MSTORE POP POP JUMP JUMPDEST PUSH1 0x0 PUSH1 0x60 DUP3 ADD SWAP1 POP DUP2 DUP2 SUB PUSH1 0x0 DUP4 ADD MSTORE PUSH2 0x964 DUP2 DUP7 PUSH2 0x8DD JUMP JUMPDEST SWAP1 POP PUSH2 0x973 PUSH1 0x20 DUP4 ADD DUP6 PUSH2 0x920 JUMP JUMPDEST PUSH2 0x980 PUSH1 0x40 DUP4 ADD DUP5 PUSH2 0x93B JUMP JUMPDEST SWAP5 SWAP4 POP POP POP POP JUMP JUMPDEST PUSH1 0x0 PUSH1 0x80 DUP3 ADD SWAP1 POP DUP2 DUP2 SUB PUSH1 0x0 DUP4 ADD MSTORE PUSH2 0x9A2 DUP2 DUP8 PUSH2 0x8DD JUMP JUMPDEST SWAP1 POP DUP2 DUP2 SUB PUSH1 0x20 DUP4 ADD MSTORE PUSH2 0x9B6 DUP2 DUP7 PUSH2 0x8DD JUMP JUMPDEST SWAP1 POP PUSH2 0x9C5 PUSH1 0x40 DUP4 ADD DUP6 PUSH2 0x920 JUMP JUMPDEST PUSH2 0x9D2 PUSH1 0x60 DUP4 ADD DUP5 PUSH2 0x93B JUMP JUMPDEST SWAP6 SWAP5 POP POP POP POP POP JUMP JUMPDEST PUSH1 0x0 DUP1 PUSH1 0x40 DUP4 DUP6 SUB SLT ISZERO PUSH2 0x9F2 JUMPI PUSH2 0x9F1 PUSH2 0x6FE JUMP JUMPDEST JUMPDEST PUSH1 0x0 DUP4 ADD CALLDATALOAD PUSH8 0xFFFFFFFFFFFFFFFF DUP2 GT ISZERO PUSH2 0xA10 JUMPI PUSH2 0xA0F PUSH2 0x703 JUMP JUMPDEST JUMPDEST PUSH2 0xA1C DUP6 DUP3 DUP7 ADD PUSH2 0x820 JUMP JUMPDEST SWAP3 POP POP PUSH1 0x20 DUP4 ADD CALLDATALOAD PUSH8 0xFFFFFFFFFFFFFFFF DUP2 GT ISZERO PUSH2 0xA3D JUMPI PUSH2 0xA3C PUSH2 0x703 JUMP JUMPDEST JUMPDEST PUSH2 0xA49 DUP6 DUP3 DUP7 ADD PUSH2 0x820 JUMP JUMPDEST SWAP2 POP POP SWAP3 POP SWAP3 SWAP1 POP JUMP JUMPDEST PUSH1 0x0 DUP2 SWAP1 POP SWAP3 SWAP2 POP POP JUMP JUMPDEST PUSH1 0x0 PUSH2 0xA69 DUP3 PUSH2 0x897 JUMP JUMPDEST PUSH2 0xA73 DUP2 DUP6 PUSH2 0xA53 JUMP JUMPDEST SWAP4 POP PUSH2 0xA83 DUP2 DUP6 PUSH1 0x20 DUP7 ADD PUSH2 0x8B3 JUMP JUMPDEST DUP1 DUP5 ADD SWAP2 POP POP SWAP3 SWAP2 POP POP JUMP JUMPDEST PUSH1 0x0 PUSH2 0xA9B DUP3 DUP5 PUSH2 0xA5E JUMP JUMPDEST SWAP2 POP DUP2 SWAP1 POP SWAP3 SWAP2 POP POP JUMP JUMPDEST PUSH32 0x4E487B7100000000000000000000000000000000000000000000000000000000 PUSH1 0x0 MSTORE PUSH1 0x22 PUSH1 0x4 MSTORE PUSH1 0x24 PUSH1 0x0 REVERT JUMPDEST PUSH1 0x0 PUSH1 0x2 DUP3 DIV SWAP1 POP PUSH1 0x1 DUP3 AND DUP1 PUSH2 0xAED JUMPI PUSH1 0x7F DUP3 AND SWAP2 POP JUMPDEST PUSH1 0x20 DUP3 LT DUP2 SUB PUSH2 0xB00 JUMPI PUSH2 0xAFF PUSH2 0xAA6 JUMP JUMPDEST JUMPDEST POP SWAP2 SWAP1 POP JUMP JUMPDEST PUSH32 0x5472616E73616374696F6E206E6F7420666F756E640000000000000000000000 PUSH1 0x0 DUP3 ADD MSTORE POP JUMP JUMPDEST PUSH1 0x0 PUSH2 0xB3C PUSH1 0x15 DUP4 PUSH2 0x8A2 JUMP JUMPDEST SWAP2 POP PUSH2 0xB47 DUP3 PUSH2 0xB06 JUMP JUMPDEST PUSH1 0x20 DUP3 ADD SWAP1 POP SWAP2 SWAP1 POP JUMP JUMPDEST PUSH1 0x0 PUSH1 0x20 DUP3 ADD SWAP1 POP DUP2 DUP2 SUB PUSH1 0x0 DUP4 ADD MSTORE PUSH2 0xB6B DUP2 PUSH2 0xB2F JUMP JUMPDEST SWAP1 POP SWAP2 SWAP1 POP JUMP JUMPDEST PUSH32 0x5472616E73616374696F6E20616C726561647920766572696669656400000000 PUSH1 0x0 DUP3 ADD MSTORE POP JUMP JUMPDEST PUSH1 0x0 PUSH2 0xBA8 PUSH1 0x1C DUP4 PUSH2 0x8A2 JUMP JUMPDEST SWAP2 POP PUSH2 0xBB3 DUP3 PUSH2 0xB72 JUMP JUMPDEST PUSH1 0x20 DUP3 ADD SWAP1 POP SWAP2 SWAP1 POP JUMP JUMPDEST PUSH1 0x0 PUSH1 0x20 DUP3 ADD SWAP1 POP DUP2 DUP2 SUB PUSH1 0x0 DUP4 ADD MSTORE PUSH2 0xBD7 DUP2 PUSH2 0xB9B JUMP JUMPDEST SWAP1 POP SWAP2 SWAP1 POP JUMP JUMPDEST PUSH1 0x0 PUSH1 0x20 DUP3 ADD SWAP1 POP DUP2 DUP2 SUB PUSH1 0x0 DUP4 ADD MSTORE PUSH2 0xBF8 DUP2 DUP5 PUSH2 0x8DD JUMP JUMPDEST SWAP1 POP SWAP3 SWAP2 POP POP JUMP JUMPDEST PUSH1 0x0 DUP2 SWAP1 POP SWAP2 SWAP1 POP JUMP JUMPDEST PUSH2 0xC13 DUP2 PUSH2 0xC00 JUMP JUMPDEST DUP2 EQ PUSH2 0xC1E JUMPI PUSH1 0x0 DUP1 REVERT JUMPDEST POP JUMP JUMPDEST PUSH1 0x0 DUP2 MLOAD SWAP1 POP PUSH2 0xC30 DUP2 PUSH2 0xC0A JUMP JUMPDEST SWAP3 SWAP2 POP POP JUMP JUMPDEST PUSH1 0x0 PUSH1 0x20 DUP3 DUP5 SUB SLT ISZERO PUSH2 0xC4C JUMPI PUSH2 0xC4B PUSH2 0x6FE JUMP JUMPDEST JUMPDEST PUSH1 0x0 PUSH2 0xC5A DUP5 DUP3 DUP6 ADD PUSH2 0xC21 JUMP JUMPDEST SWAP2 POP POP SWAP3 SWAP2 POP POP JUMP JUMPDEST PUSH2 0xC6C DUP2 PUSH2 0xC00 JUMP JUMPDEST DUP3 MSTORE POP POP JUMP JUMPDEST PUSH1 0x0 PUSH1 0x40 DUP3 ADD SWAP1 POP DUP2 DUP2 SUB PUSH1 0x0 DUP4 ADD MSTORE PUSH2 0xC8C DUP2 DUP6 PUSH2 0x8DD JUMP JUMPDEST SWAP1 POP PUSH2 0xC9B PUSH1 0x20 DUP4 ADD DUP5 PUSH2 0xC63 JUMP JUMPDEST SWAP4 SWAP3 POP POP POP JUMP JUMPDEST PUSH1 0x0 DUP2 SWAP1 POP DUP2 PUSH1 0x0 MSTORE PUSH1 0x20 PUSH1 0x0 KECCAK256 SWAP1 POP SWAP2 SWAP1 POP JUMP JUMPDEST PUSH1 0x0 PUSH1 0x20 PUSH1 0x1F DUP4 ADD DIV SWAP1 POP SWAP2 SWAP1 POP JUMP JUMPDEST PUSH1 0x0 DUP3 DUP3 SHL SWAP1 POP SWAP3 SWAP2 POP POP JUMP JUMPDEST PUSH1 0x0 PUSH1 0x8 DUP4 MUL PUSH2 0xD04 PUSH32 0xFFFFFFFFFFFFFFFFFFFFFFFFFFFFFFFFFFFFFFFFFFFFFFFFFFFFFFFFFFFFFFFF DUP3 PUSH2 0xCC7 JUMP JUMPDEST PUSH2 0xD0E DUP7 DUP4 PUSH2 0xCC7 JUMP JUMPDEST SWAP6 POP DUP1 NOT DUP5 AND SWAP4 POP DUP1 DUP7 AND DUP5 OR SWAP3 POP POP POP SWAP4 SWAP3 POP POP POP JUMP JUMPDEST PUSH1 0x0 DUP2 SWAP1 POP SWAP2 SWAP1 POP JUMP JUMPDEST PUSH1 0x0 PUSH2 0xD4B PUSH2 0xD46 PUSH2 0xD41 DUP5 PUSH2 0x916 JUMP JUMPDEST PUSH2 0xD26 JUMP JUMPDEST PUSH2 0x916 JUMP JUMPDEST SWAP1 POP SWAP2 SWAP1 POP JUMP JUMPDEST PUSH1 0x0 DUP2 SWAP1 POP SWAP2 SWAP1 POP JUMP JUMPDEST PUSH2 0xD65 DUP4 PUSH2 0xD30 JUMP JUMPDEST PUSH2 0xD79 PUSH2 0xD71 DUP3 PUSH2 0xD52 JUMP JUMPDEST DUP5 DUP5 SLOAD PUSH2 0xCD4 JUMP JUMPDEST DUP3 SSTORE POP POP POP POP JUMP JUMPDEST PUSH1 0x0 SWAP1 JUMP JUMPDEST PUSH2 0xD8E PUSH2 0xD81 JUMP JUMPDEST PUSH2 0xD99 DUP2 DUP5 DUP5 PUSH2 0xD5C JUMP JUMPDEST POP POP POP JUMP JUMPDEST JUMPDEST DUP2 DUP2 LT ISZERO PUSH2 0xDBD JUMPI PUSH2 0xDB2 PUSH1 0x0 DUP3 PUSH2 0xD86 JUMP JUMPDEST PUSH1 0x1 DUP2 ADD SWAP1 POP PUSH2 0xD9F JUMP JUMPDEST POP POP JUMP JUMPDEST PUSH1 0x1F DUP3 GT ISZERO PUSH2 0xE02 JUMPI PUSH2 0xDD3 DUP2 PUSH2 0xCA2 JUMP JUMPDEST PUSH2 0xDDC DUP5 PUSH2 0xCB7 JUMP JUMPDEST DUP2 ADD PUSH1 0x20 DUP6 LT ISZERO PUSH2 0xDEB JUMPI DUP2 SWAP1 POP JUMPDEST PUSH2 0xDFF PUSH2 0xDF7 DUP6 PUSH2 0xCB7 JUMP JUMPDEST DUP4 ADD DUP3 PUSH2 0xD9E JUMP JUMPDEST POP POP JUMPDEST POP POP POP JUMP JUMPDEST PUSH1 0x0 DUP3 DUP3 SHR SWAP1 POP SWAP3 SWAP2 POP POP JUMP JUMPDEST PUSH1 0x0 PUSH2 0xE25 PUSH1 0x0 NOT DUP5 PUSH1 0x8 MUL PUSH2 0xE07 JUMP JUMPDEST NOT DUP1 DUP4 AND SWAP2 POP POP SWAP3 SWAP2 POP POP JUMP JUMPDEST PUSH1 0x0 PUSH2 0xE3E DUP4 DUP4 PUSH2 0xE14 JUMP JUMPDEST SWAP2 POP DUP3 PUSH1 0x2 MUL DUP3 OR SWAP1 POP SWAP3 SWAP2 POP POP JUMP JUMPDEST PUSH2 0xE57 DUP3 PUSH2 0x897 JUMP JUMPDEST PUSH8 0xFFFFFFFFFFFFFFFF DUP2 GT ISZERO PUSH2 0xE70 JUMPI PUSH2 0xE6F PUSH2 0x723 JUMP JUMPDEST JUMPDEST PUSH2 0xE7A DUP3 SLOAD PUSH2 0xAD5 JUMP JUMPDEST PUSH2 0xE85 DUP3 DUP3 DUP6 PUSH2 0xDC1 JUMP JUMPDEST PUSH1 0x0 PUSH1 0x20 SWAP1 POP PUSH1 0x1F DUP4 GT PUSH1 0x1 DUP2 EQ PUSH2 0xEB8 JUMPI PUSH1 0x0 DUP5 ISZERO PUSH2 0xEA6 JUMPI DUP3 DUP8 ADD MLOAD SWAP1 POP JUMPDEST PUSH2 0xEB0 DUP6 DUP3 PUSH2 0xE32 JUMP JUMPDEST DUP7 SSTORE POP PUSH2 0xF18 JUMP JUMPDEST PUSH1 0x1F NOT DUP5 AND PUSH2 0xEC6 DUP7 PUSH2 0xCA2 JUMP JUMPDEST PUSH1 0x0 JUMPDEST DUP3 DUP2 LT ISZERO PUSH2 0xEEE JUMPI DUP5 DUP10 ADD MLOAD DUP3 SSTORE PUSH1 0x1 DUP3 ADD SWAP2 POP PUSH1 0x20 DUP6 ADD SWAP5 POP PUSH1 0x20 DUP2 ADD SWAP1 POP PUSH2 0xEC9 JUMP JUMPDEST DUP7 DUP4 LT ISZERO PUSH2 0xF0B JUMPI DUP5 DUP10 ADD MLOAD PUSH2 0xF07 PUSH1 0x1F DUP10 AND DUP3 PUSH2 0xE14 JUMP JUMPDEST DUP4 SSTORE POP JUMPDEST PUSH1 0x1 PUSH1 0x2 DUP9 MUL ADD DUP9 SSTORE POP POP POP JUMPDEST POP POP POP POP POP POP JUMP INVALID LOG2 PUSH5 0x6970667358 0x22 SLT KECCAK256 0x1E CALLCODE INVALID CHAINID EXTCODECOPY PUSH24 0x21A678456AEF694F919259ADE3B6431F0DE6F0C865C07A1F 0xE8 0xC2 PUSH5 0x736F6C6343 STOP ADDMOD EQ STOP CALLER "},"methodIdentifiers":{"confirmVerification(string)":"08ede6a6","getRiskReport(string)":"23b1d2c2","riskReports(string)":"36c1c973","stateConnector()":"025ecb32","storeAuditResult(string,string)":"bde03d86"}}}}}