{"contracts/DeFiAuditReport.sol":{"DeFiAuditReport":{"abi":[{"inputs":[],"stateMutability":"nonpayable","type":"constructor"},{"inputs":[{"internalType":"address","name":"owner","type":"address"}],"name":"OwnableInvalidOwner","type":"error"},{"inputs":[{"internalType":"address","name":"account","type":"address"}],"name":"OwnableUnauthorizedAccount","type":"error"},{"anonymous":false,"inputs":[{"indexed":true,"internalType":"address","name":"previousOwner","type":"address"},{"indexed":true,"internalType":"address","name":"newOwner","type":"address"}],"name":"OwnershipTransferred","type":"event"},{"anonymous":false,"inputs":[{"indexed":true,"internalType":"uint256","name":"reportId","type":"uint256"},{"indexed":false,"internalType":"string","name":"token0","type":"string"},{"indexed":false,"internalType":"string","name":"token1","type":"string"},{"indexed":false,"internalType":"int256","name":"changePercentage","type":"int256"},{"indexed":false,"internalType":"uint256","name":"timestamp","type":"uint256"}],"name":"ReportAdded","type":"event"},{"inputs":[{"internalType":"string","name":"token0","type":"string"},{"internalType":"string","name":"token1","type":"string"},{"internalType":"int256","name":"changePercentage","type":"int256"},{"internalType":"string","name":"aiAnalysis","type":"string"}],"name":"addReport","outputs":[],"stateMutability":"nonpayable","type":"function"},{"inputs":[{"internalType":"uint256","name":"reportId","type":"uint256"}],"name":"getReport","outputs":[{"components":[{"internalType":"string","name":"token0","type":"string"},{"internalType":"string","name":"token1","type":"string"},{"internalType":"int256","name":"changePercentage","type":"int256"},{"internalType":"string","name":"aiAnalysis","type":"string"},{"internalType":"uint256","name":"timestamp","type":"uint256"}],"internalType":"struct DeFiAuditReport.AuditReport","name":"","type":"tuple"}],"stateMutability":"view","type":"function"},{"inputs":[],"name":"getReportCount","outputs":[{"internalType":"uint256","name":"","type":"uint256"}],"stateMutability":"view","type":"function"},{"inputs":[],"name":"owner","outputs":[{"internalType":"address","name":"","type":"address"}],"stateMutability":"view","type":"function"},{"inputs":[],"name":"renounceOwnership","outputs":[],"stateMutability":"nonpayable","type":"function"},{"inputs":[{"internalType":"uint256","name":"","type":"uint256"}],"name":"reports","outputs":[{"internalType":"string","name":"token0","type":"string"},{"internalType":"string","name":"token1","type":"string"},{"internalType":"int256","name":"changePercentage","type":"int256"},{"internalType":"string","name":"aiAnalysis","type":"string"},{"internalType":"uint256","name":"timestamp","type":"uint256"}],"stateMutability":"view","type":"function"},{"inputs":[{"internalType":"address","name":"newOwner","type":"address"}],"name":"transferOwnership","outputs":[],"stateMutability":"nonpayable","type":"function"}],"evm":{"bytecode":{"linkReferences":{},"object":"60806040523480156200001157600080fd5b5033600073ffffffffffffffffffffffffffffffffffffffff168173ffffffffffffffffffffffffffffffffffffffff1603620000885760006040517f1e4fbdf70000000000000000000000000000000000000000000000000000000081526004016200007f9190620001a9565b60405180910390fd5b6200009981620000a060201b60201c565b50620001c6565b60008060009054906101000a900473ffffffffffffffffffffffffffffffffffffffff169050816000806101000a81548173ffffffffffffffffffffffffffffffffffffffff021916908373ffffffffffffffffffffffffffffffffffffffff1602179055508173ffffffffffffffffffffffffffffffffffffffff168173ffffffffffffffffffffffffffffffffffffffff167f8be0079c531659141344cd1fd0a4f28419497f9722a3daafe3b4186f6b6457e060405160405180910390a35050565b600073ffffffffffffffffffffffffffffffffffffffff82169050919050565b6000620001918262000164565b9050919050565b620001a38162000184565b82525050565b6000602082019050620001c0600083018462000198565b92915050565b6112dd80620001d66000396000f3fe608060405234801561001057600080fd5b506004361061007d5760003560e01c8063a5b5ec6f1161005b578063a5b5ec6f146100da578063c942adf7146100f6578063cad9642b1461012a578063f2fde38b146101485761007d565b80634e7f9b1914610082578063715018a6146100b25780638da5cb5b146100bc575b600080fd5b61009c60048036038101906100979190610931565b610164565b6040516100a99190610a9a565b60405180910390f35b6100ba6103b1565b005b6100c46103c5565b6040516100d19190610afd565b60405180910390f35b6100f460048036038101906100ef9190610c79565b6103ee565b005b610110600480360381019061010b9190610931565b6104f4565b604051610121959493929190610d9c565b60405180910390f35b6101326106d2565b60405161013f9190610e04565b60405180910390f35b610162600480360381019061015d9190610e4b565b6106df565b005b61016c6108b8565b60018054905082106101b3576040517f08c379a00000000000000000000000000000000000000000000000000000000081526004016101aa90610ec4565b60405180910390fd5b600182815481106101c7576101c6610ee4565b5b90600052602060002090600502016040518060a00160405290816000820180546101f090610f42565b80601f016020809104026020016040519081016040528092919081815260200182805461021c90610f42565b80156102695780601f1061023e57610100808354040283529160200191610269565b820191906000526020600020905b81548152906001019060200180831161024c57829003601f168201915b5050505050815260200160018201805461028290610f42565b80601f01602080910402602001604051908101604052809291908181526020018280546102ae90610f42565b80156102fb5780601f106102d0576101008083540402835291602001916102fb565b820191906000526020600020905b8154815290600101906020018083116102de57829003601f168201915b505050505081526020016002820154815260200160038201805461031e90610f42565b80601f016020809104026020016040519081016040528092919081815260200182805461034a90610f42565b80156103975780601f1061036c57610100808354040283529160200191610397565b820191906000526020600020905b81548152906001019060200180831161037a57829003601f168201915b505050505081526020016004820154815250509050919050565b6103b9610765565b6103c360006107ec565b565b60008060009054906101000a900473ffffffffffffffffffffffffffffffffffffffff16905090565b6103f6610765565b60016040518060a00160405280868152602001858152602001848152602001838152602001428152509080600181540180825580915050600190039060005260206000209060050201600090919091909150600082015181600001908161045d919061111f565b506020820151816001019081610473919061111f565b50604082015181600201556060820151816003019081610493919061111f565b50608082015181600401555050600180805490506104b19190611220565b7ffaa56fc5c837c66057b1d988ecbc6a666c309b8926007616dab2dae694aa78b3858585426040516104e69493929190611254565b60405180910390a250505050565b6001818154811061050457600080fd5b906000526020600020906005020160009150905080600001805461052790610f42565b80601f016020809104026020016040519081016040528092919081815260200182805461055390610f42565b80156105a05780601f10610575576101008083540402835291602001916105a0565b820191906000526020600020905b81548152906001019060200180831161058357829003601f168201915b5050505050908060010180546105b590610f42565b80601f01602080910402602001604051908101604052809291908181526020018280546105e190610f42565b801561062e5780601f106106035761010080835404028352916020019161062e565b820191906000526020600020905b81548152906001019060200180831161061157829003601f168201915b50505050509080600201549080600301805461064990610f42565b80601f016020809104026020016040519081016040528092919081815260200182805461067590610f42565b80156106c25780601f10610697576101008083540402835291602001916106c2565b820191906000526020600020905b8154815290600101906020018083116106a557829003601f168201915b5050505050908060040154905085565b6000600180549050905090565b6106e7610765565b600073ffffffffffffffffffffffffffffffffffffffff168173ffffffffffffffffffffffffffffffffffffffff16036107595760006040517f1e4fbdf70000000000000000000000000000000000000000000000000000000081526004016107509190610afd565b60405180910390fd5b610762816107ec565b50565b61076d6108b0565b73ffffffffffffffffffffffffffffffffffffffff1661078b6103c5565b73ffffffffffffffffffffffffffffffffffffffff16146107ea576107ae6108b0565b6040517f118cdaa70000000000000000000000000000000000000000000000000000000081526004016107e19190610afd565b60405180910390fd5b565b60008060009054906101000a900473ffffffffffffffffffffffffffffffffffffffff169050816000806101000a81548173ffffffffffffffffffffffffffffffffffffffff021916908373ffffffffffffffffffffffffffffffffffffffff1602179055508173ffffffffffffffffffffffffffffffffffffffff168173ffffffffffffffffffffffffffffffffffffffff167f8be0079c531659141344cd1fd0a4f28419497f9722a3daafe3b4186f6b6457e060405160405180910390a35050565b600033905090565b6040518060a0016040528060608152602001606081526020016000815260200160608152602001600081525090565b6000604051905090565b600080fd5b600080fd5b6000819050919050565b61090e816108fb565b811461091957600080fd5b50565b60008135905061092b81610905565b92915050565b600060208284031215610947576109466108f1565b5b60006109558482850161091c565b91505092915050565b600081519050919050565b600082825260208201905092915050565b60005b8381101561099857808201518184015260208101905061097d565b60008484015250505050565b6000601f19601f8301169050919050565b60006109c08261095e565b6109ca8185610969565b93506109da81856020860161097a565b6109e3816109a4565b840191505092915050565b6000819050919050565b610a01816109ee565b82525050565b610a10816108fb565b82525050565b600060a0830160008301518482036000860152610a3382826109b5565b91505060208301518482036020860152610a4d82826109b5565b9150506040830151610a6260408601826109f8565b5060608301518482036060860152610a7a82826109b5565b9150506080830151610a8f6080860182610a07565b508091505092915050565b60006020820190508181036000830152610ab48184610a16565b905092915050565b600073ffffffffffffffffffffffffffffffffffffffff82169050919050565b6000610ae782610abc565b9050919050565b610af781610adc565b82525050565b6000602082019050610b126000830184610aee565b92915050565b600080fd5b600080fd5b7f4e487b7100000000000000000000000000000000000000000000000000000000600052604160045260246000fd5b610b5a826109a4565b810181811067ffffffffffffffff82111715610b7957610b78610b22565b5b80604052505050565b6000610b8c6108e7565b9050610b988282610b51565b919050565b600067ffffffffffffffff821115610bb857610bb7610b22565b5b610bc1826109a4565b9050602081019050919050565b82818337600083830152505050565b6000610bf0610beb84610b9d565b610b82565b905082815260208101848484011115610c0c57610c0b610b1d565b5b610c17848285610bce565b509392505050565b600082601f830112610c3457610c33610b18565b5b8135610c44848260208601610bdd565b91505092915050565b610c56816109ee565b8114610c6157600080fd5b50565b600081359050610c7381610c4d565b92915050565b60008060008060808587031215610c9357610c926108f1565b5b600085013567ffffffffffffffff811115610cb157610cb06108f6565b5b610cbd87828801610c1f565b945050602085013567ffffffffffffffff811115610cde57610cdd6108f6565b5b610cea87828801610c1f565b9350506040610cfb87828801610c64565b925050606085013567ffffffffffffffff811115610d1c57610d1b6108f6565b5b610d2887828801610c1f565b91505092959194509250565b600082825260208201905092915050565b6000610d508261095e565b610d5a8185610d34565b9350610d6a81856020860161097a565b610d73816109a4565b840191505092915050565b610d87816109ee565b82525050565b610d96816108fb565b82525050565b600060a0820190508181036000830152610db68188610d45565b90508181036020830152610dca8187610d45565b9050610dd96040830186610d7e565b8181036060830152610deb8185610d45565b9050610dfa6080830184610d8d565b9695505050505050565b6000602082019050610e196000830184610d8d565b92915050565b610e2881610adc565b8114610e3357600080fd5b50565b600081359050610e4581610e1f565b92915050565b600060208284031215610e6157610e606108f1565b5b6000610e6f84828501610e36565b91505092915050565b7f5265706f727420646f6573206e6f742065786973740000000000000000000000600082015250565b6000610eae601583610d34565b9150610eb982610e78565b602082019050919050565b60006020820190508181036000830152610edd81610ea1565b9050919050565b7f4e487b7100000000000000000000000000000000000000000000000000000000600052603260045260246000fd5b7f4e487b7100000000000000000000000000000000000000000000000000000000600052602260045260246000fd5b60006002820490506001821680610f5a57607f821691505b602082108103610f6d57610f6c610f13565b5b50919050565b60008190508160005260206000209050919050565b60006020601f8301049050919050565b600082821b905092915050565b600060088302610fd57fffffffffffffffffffffffffffffffffffffffffffffffffffffffffffffffff82610f98565b610fdf8683610f98565b95508019841693508086168417925050509392505050565b6000819050919050565b600061101c611017611012846108fb565b610ff7565b6108fb565b9050919050565b6000819050919050565b61103683611001565b61104a61104282611023565b848454610fa5565b825550505050565b600090565b61105f611052565b61106a81848461102d565b505050565b5b8181101561108e57611083600082611057565b600181019050611070565b5050565b601f8211156110d3576110a481610f73565b6110ad84610f88565b810160208510156110bc578190505b6110d06110c885610f88565b83018261106f565b50505b505050565b600082821c905092915050565b60006110f6600019846008026110d8565b1980831691505092915050565b600061110f83836110e5565b9150826002028217905092915050565b6111288261095e565b67ffffffffffffffff81111561114157611140610b22565b5b61114b8254610f42565b611156828285611092565b600060209050601f8311600181146111895760008415611177578287015190505b6111818582611103565b8655506111e9565b601f19841661119786610f73565b60005b828110156111bf5784890151825560018201915060208501945060208101905061119a565b868310156111dc57848901516111d8601f8916826110e5565b8355505b6001600288020188555050505b505050505050565b7f4e487b7100000000000000000000000000000000000000000000000000000000600052601160045260246000fd5b600061122b826108fb565b9150611236836108fb565b925082820390508181111561124e5761124d6111f1565b5b92915050565b6000608082019050818103600083015261126e8187610d45565b905081810360208301526112828186610d45565b90506112916040830185610d7e565b61129e6060830184610d8d565b9594505050505056fea2646970667358221220a43ee7e4a2c02bab846ef5be0f9fb4eab3726490ead56da7b95d9d49fee8012364736f6c63430008140033","opcodes":"PUSH1 0x80 PUSH1 0x40 MSTORE CALLVALUE DUP1 ISZERO PUSH3 0x11 JUMPI PUSH1 0x0 DUP1 REVERT JUMPDEST POP CALLER PUSH1 0x0 PUSH20 0xFFFFFFFFFFFFFFFFFFFFFFFFFFFFFFFFFFFFFFFF AND DUP2 PUSH20 0xFFFFFFFFFFFFFFFFFFFFFFFFFFFFFFFFFFFFFFFF AND SUB PUSH3 0x88 JUMPI PUSH1 0x0 PUSH1 0x40 MLOAD PUSH32 0x1E4FBDF700000000000000000000000000000000000000000000000000000000 DUP2 MSTORE PUSH1 0x4 ADD PUSH3 0x7F SWAP2 SWAP1 PUSH3 0x1A9 JUMP JUMPDEST PUSH1 0x40 MLOAD DUP1 SWAP2 SUB SWAP1 REVERT JUMPDEST PUSH3 0x99 DUP2 PUSH3 0xA0 PUSH1 0x20 SHL PUSH1 0x20 SHR JUMP JUMPDEST POP PUSH3 0x1C6 JUMP JUMPDEST PUSH1 0x0 DUP1 PUSH1 0x0 SWAP1 SLOAD SWAP1 PUSH2 0x100 EXP SWAP1 DIV PUSH20 0xFFFFFFFFFFFFFFFFFFFFFFFFFFFFFFFFFFFFFFFF AND SWAP1 POP DUP2 PUSH1 0x0 DUP1 PUSH2 0x100 EXP DUP2 SLOAD DUP2 PUSH20 0xFFFFFFFFFFFFFFFFFFFFFFFFFFFFFFFFFFFFFFFF MUL NOT AND SWAP1 DUP4 PUSH20 0xFFFFFFFFFFFFFFFFFFFFFFFFFFFFFFFFFFFFFFFF AND MUL OR SWAP1 SSTORE POP DUP2 PUSH20 0xFFFFFFFFFFFFFFFFFFFFFFFFFFFFFFFFFFFFFFFF AND DUP2 PUSH20 0xFFFFFFFFFFFFFFFFFFFFFFFFFFFFFFFFFFFFFFFF AND PUSH32 0x8BE0079C531659141344CD1FD0A4F28419497F9722A3DAAFE3B4186F6B6457E0 PUSH1 0x40 MLOAD PUSH1 0x40 MLOAD DUP1 SWAP2 SUB SWAP1 LOG3 POP POP JUMP JUMPDEST PUSH1 0x0 PUSH20 0xFFFFFFFFFFFFFFFFFFFFFFFFFFFFFFFFFFFFFFFF DUP3 AND SWAP1 POP SWAP2 SWAP1 POP JUMP JUMPDEST PUSH1 0x0 PUSH3 0x191 DUP3 PUSH3 0x164 JUMP JUMPDEST SWAP1 POP SWAP2 SWAP1 POP JUMP JUMPDEST PUSH3 0x1A3 DUP2 PUSH3 0x184 JUMP JUMPDEST DUP3 MSTORE POP POP JUMP JUMPDEST PUSH1 0x0 PUSH1 0x20 DUP3 ADD SWAP1 POP PUSH3 0x1C0 PUSH1 0x0 DUP4 ADD DUP5 PUSH3 0x198 JUMP JUMPDEST SWAP3 SWAP2 POP POP JUMP JUMPDEST PUSH2 0x12DD DUP1 PUSH3 0x1D6 PUSH1 0x0 CODECOPY PUSH1 0x0 RETURN INVALID PUSH1 0x80 PUSH1 0x40 MSTORE CALLVALUE DUP1 ISZERO PUSH2 0x10 JUMPI PUSH1 0x0 DUP1 REVERT JUMPDEST POP PUSH1 0x4 CALLDATASIZE LT PUSH2 0x7D JUMPI PUSH1 0x0 CALLDATALOAD PUSH1 0xE0 SHR DUP1 PUSH4 0xA5B5EC6F GT PUSH2 0x5B JUMPI DUP1 PUSH4 0xA5B5EC6F EQ PUSH2 0xDA JUMPI DUP1 PUSH4 0xC942ADF7 EQ PUSH2 0xF6 JUMPI DUP1 PUSH4 0xCAD9642B EQ PUSH2 0x12A JUMPI DUP1 PUSH4 0xF2FDE38B EQ PUSH2 0x148 JUMPI PUSH2 0x7D JUMP JUMPDEST DUP1 PUSH4 0x4E7F9B19 EQ PUSH2 0x82 JUMPI DUP1 PUSH4 0x715018A6 EQ PUSH2 0xB2 JUMPI DUP1 PUSH4 0x8DA5CB5B EQ PUSH2 0xBC JUMPI JUMPDEST PUSH1 0x0 DUP1 REVERT JUMPDEST PUSH2 0x9C PUSH1 0x4 DUP1 CALLDATASIZE SUB DUP2 ADD SWAP1 PUSH2 0x97 SWAP2 SWAP1 PUSH2 0x931 JUMP JUMPDEST PUSH2 0x164 JUMP JUMPDEST PUSH1 0x40 MLOAD PUSH2 0xA9 SWAP2 SWAP1 PUSH2 0xA9A JUMP JUMPDEST PUSH1 0x40 MLOAD DUP1 SWAP2 SUB SWAP1 RETURN JUMPDEST PUSH2 0xBA PUSH2 0x3B1 JUMP JUMPDEST STOP JUMPDEST PUSH2 0xC4 PUSH2 0x3C5 JUMP JUMPDEST PUSH1 0x40 MLOAD PUSH2 0xD1 SWAP2 SWAP1 PUSH2 0xAFD JUMP JUMPDEST PUSH1 0x40 MLOAD DUP1 SWAP2 SUB SWAP1 RETURN JUMPDEST PUSH2 0xF4 PUSH1 0x4 DUP1 CALLDATASIZE SUB DUP2 ADD SWAP1 PUSH2 0xEF SWAP2 SWAP1 PUSH2 0xC79 JUMP JUMPDEST PUSH2 0x3EE JUMP JUMPDEST STOP JUMPDEST PUSH2 0x110 PUSH1 0x4 DUP1 CALLDATASIZE SUB DUP2 ADD SWAP1 PUSH2 0x10B SWAP2 SWAP1 PUSH2 0x931 JUMP JUMPDEST PUSH2 0x4F4 JUMP JUMPDEST PUSH1 0x40 MLOAD PUSH2 0x121 SWAP6 SWAP5 SWAP4 SWAP3 SWAP2 SWAP1 PUSH2 0xD9C JUMP JUMPDEST PUSH1 0x40 MLOAD DUP1 SWAP2 SUB SWAP1 RETURN JUMPDEST PUSH2 0x132 PUSH2 0x6D2 JUMP JUMPDEST PUSH1 0x40 MLOAD PUSH2 0x13F SWAP2 SWAP1 PUSH2 0xE04 JUMP JUMPDEST PUSH1 0x40 MLOAD DUP1 SWAP2 SUB SWAP1 RETURN JUMPDEST PUSH2 0x162 PUSH1 0x4 DUP1 CALLDATASIZE SUB DUP2 ADD SWAP1 PUSH2 0x15D SWAP2 SWAP1 PUSH2 0xE4B JUMP JUMPDEST PUSH2 0x6DF JUMP JUMPDEST STOP JUMPDEST PUSH2 0x16C PUSH2 0x8B8 JUMP JUMPDEST PUSH1 0x1 DUP1 SLOAD SWAP1 POP DUP3 LT PUSH2 0x1B3 JUMPI PUSH1 0x40 MLOAD PUSH32 0x8C379A000000000000000000000000000000000000000000000000000000000 DUP2 MSTORE PUSH1 0x4 ADD PUSH2 0x1AA SWAP1 PUSH2 0xEC4 JUMP JUMPDEST PUSH1 0x40 MLOAD DUP1 SWAP2 SUB SWAP1 REVERT JUMPDEST PUSH1 0x1 DUP3 DUP2 SLOAD DUP2 LT PUSH2 0x1C7 JUMPI PUSH2 0x1C6 PUSH2 0xEE4 JUMP JUMPDEST JUMPDEST SWAP1 PUSH1 0x0 MSTORE PUSH1 0x20 PUSH1 0x0 KECCAK256 SWAP1 PUSH1 0x5 MUL ADD PUSH1 0x40 MLOAD DUP1 PUSH1 0xA0 ADD PUSH1 0x40 MSTORE SWAP1 DUP2 PUSH1 0x0 DUP3 ADD DUP1 SLOAD PUSH2 0x1F0 SWAP1 PUSH2 0xF42 JUMP JUMPDEST DUP1 PUSH1 0x1F ADD PUSH1 0x20 DUP1 SWAP2 DIV MUL PUSH1 0x20 ADD PUSH1 0x40 MLOAD SWAP1 DUP2 ADD PUSH1 0x40 MSTORE DUP1 SWAP3 SWAP2 SWAP1 DUP2 DUP2 MSTORE PUSH1 0x20 ADD DUP3 DUP1 SLOAD PUSH2 0x21C SWAP1 PUSH2 0xF42 JUMP JUMPDEST DUP1 ISZERO PUSH2 0x269 JUMPI DUP1 PUSH1 0x1F LT PUSH2 0x23E JUMPI PUSH2 0x100 DUP1 DUP4 SLOAD DIV MUL DUP4 MSTORE SWAP2 PUSH1 0x20 ADD SWAP2 PUSH2 0x269 JUMP JUMPDEST DUP3 ADD SWAP2 SWAP1 PUSH1 0x0 MSTORE PUSH1 0x20 PUSH1 0x0 KECCAK256 SWAP1 JUMPDEST DUP2 SLOAD DUP2 MSTORE SWAP1 PUSH1 0x1 ADD SWAP1 PUSH1 0x20 ADD DUP1 DUP4 GT PUSH2 0x24C JUMPI DUP3 SWAP1 SUB PUSH1 0x1F AND DUP3 ADD SWAP2 JUMPDEST POP POP POP POP POP DUP2 MSTORE PUSH1 0x20 ADD PUSH1 0x1 DUP3 ADD DUP1 SLOAD PUSH2 0x282 SWAP1 PUSH2 0xF42 JUMP JUMPDEST DUP1 PUSH1 0x1F ADD PUSH1 0x20 DUP1 SWAP2 DIV MUL PUSH1 0x20 ADD PUSH1 0x40 MLOAD SWAP1 DUP2 ADD PUSH1 0x40 MSTORE DUP1 SWAP3 SWAP2 SWAP1 DUP2 DUP2 MSTORE PUSH1 0x20 ADD DUP3 DUP1 SLOAD PUSH2 0x2AE SWAP1 PUSH2 0xF42 JUMP JUMPDEST DUP1 ISZERO PUSH2 0x2FB JUMPI DUP1 PUSH1 0x1F LT PUSH2 0x2D0 JUMPI PUSH2 0x100 DUP1 DUP4 SLOAD DIV MUL DUP4 MSTORE SWAP2 PUSH1 0x20 ADD SWAP2 PUSH2 0x2FB JUMP JUMPDEST DUP3 ADD SWAP2 SWAP1 PUSH1 0x0 MSTORE PUSH1 0x20 PUSH1 0x0 KECCAK256 SWAP1 JUMPDEST DUP2 SLOAD DUP2 MSTORE SWAP1 PUSH1 0x1 ADD SWAP1 PUSH1 0x20 ADD DUP1 DUP4 GT PUSH2 0x2DE JUMPI DUP3 SWAP1 SUB PUSH1 0x1F AND DUP3 ADD SWAP2 JUMPDEST POP POP POP POP POP DUP2 MSTORE PUSH1 0x20 ADD PUSH1 0x2 DUP3 ADD SLOAD DUP2 MSTORE PUSH1 0x20 ADD PUSH1 0x3 DUP3 ADD DUP1 SLOAD PUSH2 0x31E SWAP1 PUSH2 0xF42 JUMP JUMPDEST DUP1 PUSH1 0x1F ADD PUSH1 0x20 DUP1 SWAP2 DIV MUL PUSH1 0x20 ADD PUSH1 0x40 MLOAD SWAP1 DUP2 ADD PUSH1 0x40 MSTORE DUP1 SWAP3 SWAP2 SWAP1 DUP2 DUP2 MSTORE PUSH1 0x20 ADD DUP3 DUP1 SLOAD PUSH2 0x34A SWAP1 PUSH2 0xF42 JUMP JUMPDEST DUP1 ISZERO PUSH2 0x397 JUMPI DUP1 PUSH1 0x1F LT PUSH2 0x36C JUMPI PUSH2 0x100 DUP1 DUP4 SLOAD DIV MUL DUP4 MSTORE SWAP2 PUSH1 0x20 ADD SWAP2 PUSH2 0x397 JUMP JUMPDEST DUP3 ADD SWAP2 SWAP1 PUSH1 0x0 MSTORE PUSH1 0x20 PUSH1 0x0 KECCAK256 SWAP1 JUMPDEST DUP2 SLOAD DUP2 MSTORE SWAP1 PUSH1 0x1 ADD SWAP1 PUSH1 0x20 ADD DUP1 DUP4 GT PUSH2 0x37A JUMPI DUP3 SWAP1 SUB PUSH1 0x1F AND DUP3 ADD SWAP2 JUMPDEST POP POP POP POP POP DUP2 MSTORE PUSH1 0x20 ADD PUSH1 0x4 DUP3 ADD SLOAD DUP2 MSTORE POP POP SWAP1 POP SWAP2 SWAP1 POP JUMP JUMPDEST PUSH2 0x3B9 PUSH2 0x765 JUMP JUMPDEST PUSH2 0x3C3 PUSH1 0x0 PUSH2 0x7EC JUMP JUMPDEST JUMP JUMPDEST PUSH1 0x0 DUP1 PUSH1 0x0 SWAP1 SLOAD SWAP1 PUSH2 0x100 EXP SWAP1 DIV PUSH20 0xFFFFFFFFFFFFFFFFFFFFFFFFFFFFFFFFFFFFFFFF AND SWAP1 POP SWAP1 JUMP JUMPDEST PUSH2 0x3F6 PUSH2 0x765 JUMP JUMPDEST PUSH1 0x1 PUSH1 0x40 MLOAD DUP1 PUSH1 0xA0 ADD PUSH1 0x40 MSTORE DUP1 DUP7 DUP2 MSTORE PUSH1 0x20 ADD DUP6 DUP2 MSTORE PUSH1 0x20 ADD DUP5 DUP2 MSTORE PUSH1 0x20 ADD DUP4 DUP2 MSTORE PUSH1 0x20 ADD TIMESTAMP DUP2 MSTORE POP SWAP1 DUP1 PUSH1 0x1 DUP2 SLOAD ADD DUP1 DUP3 SSTORE DUP1 SWAP2 POP POP PUSH1 0x1 SWAP1 SUB SWAP1 PUSH1 0x0 MSTORE PUSH1 0x20 PUSH1 0x0 KECCAK256 SWAP1 PUSH1 0x5 MUL ADD PUSH1 0x0 SWAP1 SWAP2 SWAP1 SWAP2 SWAP1 SWAP2 POP PUSH1 0x0 DUP3 ADD MLOAD DUP2 PUSH1 0x0 ADD SWAP1 DUP2 PUSH2 0x45D SWAP2 SWAP1 PUSH2 0x111F JUMP JUMPDEST POP PUSH1 0x20 DUP3 ADD MLOAD DUP2 PUSH1 0x1 ADD SWAP1 DUP2 PUSH2 0x473 SWAP2 SWAP1 PUSH2 0x111F JUMP JUMPDEST POP PUSH1 0x40 DUP3 ADD MLOAD DUP2 PUSH1 0x2 ADD SSTORE PUSH1 0x60 DUP3 ADD MLOAD DUP2 PUSH1 0x3 ADD SWAP1 DUP2 PUSH2 0x493 SWAP2 SWAP1 PUSH2 0x111F JUMP JUMPDEST POP PUSH1 0x80 DUP3 ADD MLOAD DUP2 PUSH1 0x4 ADD SSTORE POP POP PUSH1 0x1 DUP1 DUP1 SLOAD SWAP1 POP PUSH2 0x4B1 SWAP2 SWAP1 PUSH2 0x1220 JUMP JUMPDEST PUSH32 0xFAA56FC5C837C66057B1D988ECBC6A666C309B8926007616DAB2DAE694AA78B3 DUP6 DUP6 DUP6 TIMESTAMP PUSH1 0x40 MLOAD PUSH2 0x4E6 SWAP5 SWAP4 SWAP3 SWAP2 SWAP1 PUSH2 0x1254 JUMP JUMPDEST PUSH1 0x40 MLOAD DUP1 SWAP2 SUB SWAP1 LOG2 POP POP POP POP JUMP JUMPDEST PUSH1 0x1 DUP2 DUP2 SLOAD DUP2 LT PUSH2 0x504 JUMPI PUSH1 0x0 DUP1 REVERT JUMPDEST SWAP1 PUSH1 0x0 MSTORE PUSH1 0x20 PUSH1 0x0 KECCAK256 SWAP1 PUSH1 0x5 MUL ADD PUSH1 0x0 SWAP2 POP SWAP1 POP DUP1 PUSH1 0x0 ADD DUP1 SLOAD PUSH2 0x527 SWAP1 PUSH2 0xF42 JUMP JUMPDEST DUP1 PUSH1 0x1F ADD PUSH1 0x20 DUP1 SWAP2 DIV MUL PUSH1 0x20 ADD PUSH1 0x40 MLOAD SWAP1 DUP2 ADD PUSH1 0x40 MSTORE DUP1 SWAP3 SWAP2 SWAP1 DUP2 DUP2 MSTORE PUSH1 0x20 ADD DUP3 DUP1 SLOAD PUSH2 0x553 SWAP1 PUSH2 0xF42 JUMP JUMPDEST DUP1 ISZERO PUSH2 0x5A0 JUMPI DUP1 PUSH1 0x1F LT PUSH2 0x575 JUMPI PUSH2 0x100 DUP1 DUP4 SLOAD DIV MUL DUP4 MSTORE SWAP2 PUSH1 0x20 ADD SWAP2 PUSH2 0x5A0 JUMP JUMPDEST DUP3 ADD SWAP2 SWAP1 PUSH1 0x0 MSTORE PUSH1 0x20 PUSH1 0x0 KECCAK256 SWAP1 JUMPDEST DUP2 SLOAD DUP2 MSTORE SWAP1 PUSH1 0x1 ADD SWAP1 PUSH1 0x20 ADD DUP1 DUP4 GT PUSH2 0x583 JUMPI DUP3 SWAP1 SUB PUSH1 0x1F AND DUP3 ADD SWAP2 JUMPDEST POP POP POP POP POP SWAP1 DUP1 PUSH1 0x1 ADD DUP1 SLOAD PUSH2 0x5B5 SWAP1 PUSH2 0xF42 JUMP JUMPDEST DUP1 PUSH1 0x1F ADD PUSH1 0x20 DUP1 SWAP2 DIV MUL PUSH1 0x20 ADD PUSH1 0x40 MLOAD SWAP1 DUP2 ADD PUSH1 0x40 MSTORE DUP1 SWAP3 SWAP2 SWAP1 DUP2 DUP2 MSTORE PUSH1 0x20 ADD DUP3 DUP1 SLOAD PUSH2 0x5E1 SWAP1 PUSH2 0xF42 JUMP JUMPDEST DUP1 ISZERO PUSH2 0x62E JUMPI DUP1 PUSH1 0x1F LT PUSH2 0x603 JUMPI PUSH2 0x100 DUP1 DUP4 SLOAD DIV MUL DUP4 MSTORE SWAP2 PUSH1 0x20 ADD SWAP2 PUSH2 0x62E JUMP JUMPDEST DUP3 ADD SWAP2 SWAP1 PUSH1 0x0 MSTORE PUSH1 0x20 PUSH1 0x0 KECCAK256 SWAP1 JUMPDEST DUP2 SLOAD DUP2 MSTORE SWAP1 PUSH1 0x1 ADD SWAP1 PUSH1 0x20 ADD DUP1 DUP4 GT PUSH2 0x611 JUMPI DUP3 SWAP1 SUB PUSH1 0x1F AND DUP3 ADD SWAP2 JUMPDEST POP POP POP POP POP SWAP1 DUP1 PUSH1 0x2 ADD SLOAD SWAP1 DUP1 PUSH1 0x3 ADD DUP1 SLOAD PUSH2 0x649 SWAP1 PUSH2 0xF42 JUMP JUMPDEST DUP1 PUSH1 0x1F ADD PUSH1 0x20 DUP1 SWAP2 DIV MUL PUSH1 0x20 ADD PUSH1 0x40 MLOAD SWAP1 DUP2 ADD PUSH1 0x40 MSTORE DUP1 SWAP3 SWAP2 SWAP1 DUP2 DUP2 MSTORE PUSH1 0x20 ADD DUP3 DUP1 SLOAD PUSH2 0x675 SWAP1 PUSH2 0xF42 JUMP JUMPDEST DUP1 ISZERO PUSH2 0x6C2 JUMPI DUP1 PUSH1 0x1F LT PUSH2 0x697 JUMPI PUSH2 0x100 DUP1 DUP4 SLOAD DIV MUL DUP4 MSTORE SWAP2 PUSH1 0x20 ADD SWAP2 PUSH2 0x6C2 JUMP JUMPDEST DUP3 ADD SWAP2 SWAP1 PUSH1 0x0 MSTORE PUSH1 0x20 PUSH1 0x0 KECCAK256 SWAP1 JUMPDEST DUP2 SLOAD DUP2 MSTORE SWAP1 PUSH1 0x1 ADD SWAP1 PUSH1 0x20 ADD DUP1 DUP4 GT PUSH2 0x6A5 JUMPI DUP3 SWAP1 SUB PUSH1 0x1F AND DUP3 ADD SWAP2 JUMPDEST POP POP POP POP POP SWAP1 DUP1 PUSH1 0x4 ADD SLOAD SWAP1 POP DUP6 JUMP JUMPDEST PUSH1 0x0 PUSH1 0x1 DUP1 SLOAD SWAP1 POP SWAP1 POP SWAP1 JUMP JUMPDEST PUSH2 0x6E7 PUSH2 0x765 JUMP JUMPDEST PUSH1 0x0 PUSH20 0xFFFFFFFFFFFFFFFFFFFFFFFFFFFFFFFFFFFFFFFF AND DUP2 PUSH20 0xFFFFFFFFFFFFFFFFFFFFFFFFFFFFFFFFFFFFFFFF AND SUB PUSH2 0x759 JUMPI PUSH1 0x0 PUSH1 0x40 MLOAD PUSH32 0x1E4FBDF700000000000000000000000000000000000000000000000000000000 DUP2 MSTORE PUSH1 0x4 ADD PUSH2 0x750 SWAP2 SWAP1 PUSH2 0xAFD JUMP JUMPDEST PUSH1 0x40 MLOAD DUP1 SWAP2 SUB SWAP1 REVERT JUMPDEST PUSH2 0x762 DUP2 PUSH2 0x7EC JUMP JUMPDEST POP JUMP JUMPDEST PUSH2 0x76D PUSH2 0x8B0 JUMP JUMPDEST PUSH20 0xFFFFFFFFFFFFFFFFFFFFFFFFFFFFFFFFFFFFFFFF AND PUSH2 0x78B PUSH2 0x3C5 JUMP JUMPDEST PUSH20 0xFFFFFFFFFFFFFFFFFFFFFFFFFFFFFFFFFFFFFFFF AND EQ PUSH2 0x7EA JUMPI PUSH2 0x7AE PUSH2 0x8B0 JUMP JUMPDEST PUSH1 0x40 MLOAD PUSH32 0x118CDAA700000000000000000000000000000000000000000000000000000000 DUP2 MSTORE PUSH1 0x4 ADD PUSH2 0x7E1 SWAP2 SWAP1 PUSH2 0xAFD JUMP JUMPDEST PUSH1 0x40 MLOAD DUP1 SWAP2 SUB SWAP1 REVERT JUMPDEST JUMP JUMPDEST PUSH1 0x0 DUP1 PUSH1 0x0 SWAP1 SLOAD SWAP1 PUSH2 0x100 EXP SWAP1 DIV PUSH20 0xFFFFFFFFFFFFFFFFFFFFFFFFFFFFFFFFFFFFFFFF AND SWAP1 POP DUP2 PUSH1 0x0 DUP1 PUSH2 0x100 EXP DUP2 SLOAD DUP2 PUSH20 0xFFFFFFFFFFFFFFFFFFFFFFFFFFFFFFFFFFFFFFFF MUL NOT AND SWAP1 DUP4 PUSH20 0xFFFFFFFFFFFFFFFFFFFFFFFFFFFFFFFFFFFFFFFF AND MUL OR SWAP1 SSTORE POP DUP2 PUSH20 0xFFFFFFFFFFFFFFFFFFFFFFFFFFFFFFFFFFFFFFFF AND DUP2 PUSH20 0xFFFFFFFFFFFFFFFFFFFFFFFFFFFFFFFFFFFFFFFF AND PUSH32 0x8BE0079C531659141344CD1FD0A4F28419497F9722A3DAAFE3B4186F6B6457E0 PUSH1 0x40 MLOAD PUSH1 0x40 MLOAD DUP1 SWAP2 SUB SWAP1 LOG3 POP POP JUMP JUMPDEST PUSH1 0x0 CALLER SWAP1 POP SWAP1 JUMP JUMPDEST PUSH1 0x40 MLOAD DUP1 PUSH1 0xA0 ADD PUSH1 0x40 MSTORE DUP1 PUSH1 0x60 DUP2 MSTORE PUSH1 0x20 ADD PUSH1 0x60 DUP2 MSTORE PUSH1 0x20 ADD PUSH1 0x0 DUP2 MSTORE PUSH1 0x20 ADD PUSH1 0x60 DUP2 MSTORE PUSH1 0x20 ADD PUSH1 0x0 DUP2 MSTORE POP SWAP1 JUMP JUMPDEST PUSH1 0x0 PUSH1 0x40 MLOAD SWAP1 POP SWAP1 JUMP JUMPDEST PUSH1 0x0 DUP1 REVERT JUMPDEST PUSH1 0x0 DUP1 REVERT JUMPDEST PUSH1 0x0 DUP2 SWAP1 POP SWAP2 SWAP1 POP JUMP JUMPDEST PUSH2 0x90E DUP2 PUSH2 0x8FB JUMP JUMPDEST DUP2 EQ PUSH2 0x919 JUMPI PUSH1 0x0 DUP1 REVERT JUMPDEST POP JUMP JUMPDEST PUSH1 0x0 DUP2 CALLDATALOAD SWAP1 POP PUSH2 0x92B DUP2 PUSH2 0x905 JUMP JUMPDEST SWAP3 SWAP2 POP POP JUMP JUMPDEST PUSH1 0x0 PUSH1 0x20 DUP3 DUP5 SUB SLT ISZERO PUSH2 0x947 JUMPI PUSH2 0x946 PUSH2 0x8F1 JUMP JUMPDEST JUMPDEST PUSH1 0x0 PUSH2 0x955 DUP5 DUP3 DUP6 ADD PUSH2 0x91C JUMP JUMPDEST SWAP2 POP POP SWAP3 SWAP2 POP POP JUMP JUMPDEST PUSH1 0x0 DUP2 MLOAD SWAP1 POP SWAP2 SWAP1 POP JUMP JUMPDEST PUSH1 0x0 DUP3 DUP3 MSTORE PUSH1 0x20 DUP3 ADD SWAP1 POP SWAP3 SWAP2 POP POP JUMP JUMPDEST PUSH1 0x0 JUMPDEST DUP4 DUP2 LT ISZERO PUSH2 0x998 JUMPI DUP1 DUP3 ADD MLOAD DUP2 DUP5 ADD MSTORE PUSH1 0x20 DUP2 ADD SWAP1 POP PUSH2 0x97D JUMP JUMPDEST PUSH1 0x0 DUP5 DUP5 ADD MSTORE POP POP POP POP JUMP JUMPDEST PUSH1 0x0 PUSH1 0x1F NOT PUSH1 0x1F DUP4 ADD AND SWAP1 POP SWAP2 SWAP1 POP JUMP JUMPDEST PUSH1 0x0 PUSH2 0x9C0 DUP3 PUSH2 0x95E JUMP JUMPDEST PUSH2 0x9CA DUP2 DUP6 PUSH2 0x969 JUMP JUMPDEST SWAP4 POP PUSH2 0x9DA DUP2 DUP6 PUSH1 0x20 DUP7 ADD PUSH2 0x97A JUMP JUMPDEST PUSH2 0x9E3 DUP2 PUSH2 0x9A4 JUMP JUMPDEST DUP5 ADD SWAP2 POP POP SWAP3 SWAP2 POP POP JUMP JUMPDEST PUSH1 0x0 DUP2 SWAP1 POP SWAP2 SWAP1 POP JUMP JUMPDEST PUSH2 0xA01 DUP2 PUSH2 0x9EE JUMP JUMPDEST DUP3 MSTORE POP POP JUMP JUMPDEST PUSH2 0xA10 DUP2 PUSH2 0x8FB JUMP JUMPDEST DUP3 MSTORE POP POP JUMP JUMPDEST PUSH1 0x0 PUSH1 0xA0 DUP4 ADD PUSH1 0x0 DUP4 ADD MLOAD DUP5 DUP3 SUB PUSH1 0x0 DUP7 ADD MSTORE PUSH2 0xA33 DUP3 DUP3 PUSH2 0x9B5 JUMP JUMPDEST SWAP2 POP POP PUSH1 0x20 DUP4 ADD MLOAD DUP5 DUP3 SUB PUSH1 0x20 DUP7 ADD MSTORE PUSH2 0xA4D DUP3 DUP3 PUSH2 0x9B5 JUMP JUMPDEST SWAP2 POP POP PUSH1 0x40 DUP4 ADD MLOAD PUSH2 0xA62 PUSH1 0x40 DUP7 ADD DUP3 PUSH2 0x9F8 JUMP JUMPDEST POP PUSH1 0x60 DUP4 ADD MLOAD DUP5 DUP3 SUB PUSH1 0x60 DUP7 ADD MSTORE PUSH2 0xA7A DUP3 DUP3 PUSH2 0x9B5 JUMP JUMPDEST SWAP2 POP POP PUSH1 0x80 DUP4 ADD MLOAD PUSH2 0xA8F PUSH1 0x80 DUP7 ADD DUP3 PUSH2 0xA07 JUMP JUMPDEST POP DUP1 SWAP2 POP POP SWAP3 SWAP2 POP POP JUMP JUMPDEST PUSH1 0x0 PUSH1 0x20 DUP3 ADD SWAP1 POP DUP2 DUP2 SUB PUSH1 0x0 DUP4 ADD MSTORE PUSH2 0xAB4 DUP2 DUP5 PUSH2 0xA16 JUMP JUMPDEST SWAP1 POP SWAP3 SWAP2 POP POP JUMP JUMPDEST PUSH1 0x0 PUSH20 0xFFFFFFFFFFFFFFFFFFFFFFFFFFFFFFFFFFFFFFFF DUP3 AND SWAP1 POP SWAP2 SWAP1 POP JUMP JUMPDEST PUSH1 0x0 PUSH2 0xAE7 DUP3 PUSH2 0xABC JUMP JUMPDEST SWAP1 POP SWAP2 SWAP1 POP JUMP JUMPDEST PUSH2 0xAF7 DUP2 PUSH2 0xADC JUMP JUMPDEST DUP3 MSTORE POP POP JUMP JUMPDEST PUSH1 0x0 PUSH1 0x20 DUP3 ADD SWAP1 POP PUSH2 0xB12 PUSH1 0x0 DUP4 ADD DUP5 PUSH2 0xAEE JUMP JUMPDEST SWAP3 SWAP2 POP POP JUMP JUMPDEST PUSH1 0x0 DUP1 REVERT JUMPDEST PUSH1 0x0 DUP1 REVERT JUMPDEST PUSH32 0x4E487B7100000000000000000000000000000000000000000000000000000000 PUSH1 0x0 MSTORE PUSH1 0x41 PUSH1 0x4 MSTORE PUSH1 0x24 PUSH1 0x0 REVERT JUMPDEST PUSH2 0xB5A DUP3 PUSH2 0x9A4 JUMP JUMPDEST DUP2 ADD DUP2 DUP2 LT PUSH8 0xFFFFFFFFFFFFFFFF DUP3 GT OR ISZERO PUSH2 0xB79 JUMPI PUSH2 0xB78 PUSH2 0xB22 JUMP JUMPDEST JUMPDEST DUP1 PUSH1 0x40 MSTORE POP POP POP JUMP JUMPDEST PUSH1 0x0 PUSH2 0xB8C PUSH2 0x8E7 JUMP JUMPDEST SWAP1 POP PUSH2 0xB98 DUP3 DUP3 PUSH2 0xB51 JUMP JUMPDEST SWAP2 SWAP1 POP JUMP JUMPDEST PUSH1 0x0 PUSH8 0xFFFFFFFFFFFFFFFF DUP3 GT ISZERO PUSH2 0xBB8 JUMPI PUSH2 0xBB7 PUSH2 0xB22 JUMP JUMPDEST JUMPDEST PUSH2 0xBC1 DUP3 PUSH2 0x9A4 JUMP JUMPDEST SWAP1 POP PUSH1 0x20 DUP2 ADD SWAP1 POP SWAP2 SWAP1 POP JUMP JUMPDEST DUP3 DUP2 DUP4 CALLDATACOPY PUSH1 0x0 DUP4 DUP4 ADD MSTORE POP POP POP JUMP JUMPDEST PUSH1 0x0 PUSH2 0xBF0 PUSH2 0xBEB DUP5 PUSH2 0xB9D JUMP JUMPDEST PUSH2 0xB82 JUMP JUMPDEST SWAP1 POP DUP3 DUP2 MSTORE PUSH1 0x20 DUP2 ADD DUP5 DUP5 DUP5 ADD GT ISZERO PUSH2 0xC0C JUMPI PUSH2 0xC0B PUSH2 0xB1D JUMP JUMPDEST JUMPDEST PUSH2 0xC17 DUP5 DUP3 DUP6 PUSH2 0xBCE JUMP JUMPDEST POP SWAP4 SWAP3 POP POP POP JUMP JUMPDEST PUSH1 0x0 DUP3 PUSH1 0x1F DUP4 ADD SLT PUSH2 0xC34 JUMPI PUSH2 0xC33 PUSH2 0xB18 JUMP JUMPDEST JUMPDEST DUP2 CALLDATALOAD PUSH2 0xC44 DUP5 DUP3 PUSH1 0x20 DUP7 ADD PUSH2 0xBDD JUMP JUMPDEST SWAP2 POP POP SWAP3 SWAP2 POP POP JUMP JUMPDEST PUSH2 0xC56 DUP2 PUSH2 0x9EE JUMP JUMPDEST DUP2 EQ PUSH2 0xC61 JUMPI PUSH1 0x0 DUP1 REVERT JUMPDEST POP JUMP JUMPDEST PUSH1 0x0 DUP2 CALLDATALOAD SWAP1 POP PUSH2 0xC73 DUP2 PUSH2 0xC4D JUMP JUMPDEST SWAP3 SWAP2 POP POP JUMP JUMPDEST PUSH1 0x0 DUP1 PUSH1 0x0 DUP1 PUSH1 0x80 DUP6 DUP8 SUB SLT ISZERO PUSH2 0xC93 JUMPI PUSH2 0xC92 PUSH2 0x8F1 JUMP JUMPDEST JUMPDEST PUSH1 0x0 DUP6 ADD CALLDATALOAD PUSH8 0xFFFFFFFFFFFFFFFF DUP2 GT ISZERO PUSH2 0xCB1 JUMPI PUSH2 0xCB0 PUSH2 0x8F6 JUMP JUMPDEST JUMPDEST PUSH2 0xCBD DUP8 DUP3 DUP9 ADD PUSH2 0xC1F JUMP JUMPDEST SWAP5 POP POP PUSH1 0x20 DUP6 ADD CALLDATALOAD PUSH8 0xFFFFFFFFFFFFFFFF DUP2 GT ISZERO PUSH2 0xCDE JUMPI PUSH2 0xCDD PUSH2 0x8F6 JUMP JUMPDEST JUMPDEST PUSH2 0xCEA DUP8 DUP3 DUP9 ADD PUSH2 0xC1F JUMP JUMPDEST SWAP4 POP POP PUSH1 0x40 PUSH2 0xCFB DUP8 DUP3 DUP9 ADD PUSH2 0xC64 JUMP JUMPDEST SWAP3 POP POP PUSH1 0x60 DUP6 ADD CALLDATALOAD PUSH8 0xFFFFFFFFFFFFFFFF DUP2 GT ISZERO PUSH2 0xD1C JUMPI PUSH2 0xD1B PUSH2 0x8F6 JUMP JUMPDEST JUMPDEST PUSH2 0xD28 DUP8 DUP3 DUP9 ADD PUSH2 0xC1F JUMP JUMPDEST SWAP2 POP POP SWAP3 SWAP6 SWAP2 SWAP5 POP SWAP3 POP JUMP JUMPDEST PUSH1 0x0 DUP3 DUP3 MSTORE PUSH1 0x20 DUP3 ADD SWAP1 POP SWAP3 SWAP2 POP POP JUMP JUMPDEST PUSH1 0x0 PUSH2 0xD50 DUP3 PUSH2 0x95E JUMP JUMPDEST PUSH2 0xD5A DUP2 DUP6 PUSH2 0xD34 JUMP JUMPDEST SWAP4 POP PUSH2 0xD6A DUP2 DUP6 PUSH1 0x20 DUP7 ADD PUSH2 0x97A JUMP JUMPDEST PUSH2 0xD73 DUP2 PUSH2 0x9A4 JUMP JUMPDEST DUP5 ADD SWAP2 POP POP SWAP3 SWAP2 POP POP JUMP JUMPDEST PUSH2 0xD87 DUP2 PUSH2 0x9EE JUMP JUMPDEST DUP3 MSTORE POP POP JUMP JUMPDEST PUSH2 0xD96 DUP2 PUSH2 0x8FB JUMP JUMPDEST DUP3 MSTORE POP POP JUMP JUMPDEST PUSH1 0x0 PUSH1 0xA0 DUP3 ADD SWAP1 POP DUP2 DUP2 SUB PUSH1 0x0 DUP4 ADD MSTORE PUSH2 0xDB6 DUP2 DUP9 PUSH2 0xD45 JUMP JUMPDEST SWAP1 POP DUP2 DUP2 SUB PUSH1 0x20 DUP4 ADD MSTORE PUSH2 0xDCA DUP2 DUP8 PUSH2 0xD45 JUMP JUMPDEST SWAP1 POP PUSH2 0xDD9 PUSH1 0x40 DUP4 ADD DUP7 PUSH2 0xD7E JUMP JUMPDEST DUP2 DUP2 SUB PUSH1 0x60 DUP4 ADD MSTORE PUSH2 0xDEB DUP2 DUP6 PUSH2 0xD45 JUMP JUMPDEST SWAP1 POP PUSH2 0xDFA PUSH1 0x80 DUP4 ADD DUP5 PUSH2 0xD8D JUMP JUMPDEST SWAP7 SWAP6 POP POP POP POP POP POP JUMP JUMPDEST PUSH1 0x0 PUSH1 0x20 DUP3 ADD SWAP1 POP PUSH2 0xE19 PUSH1 0x0 DUP4 ADD DUP5 PUSH2 0xD8D JUMP JUMPDEST SWAP3 SWAP2 POP POP JUMP JUMPDEST PUSH2 0xE28 DUP2 PUSH2 0xADC JUMP JUMPDEST DUP2 EQ PUSH2 0xE33 JUMPI PUSH1 0x0 DUP1 REVERT JUMPDEST POP JUMP JUMPDEST PUSH1 0x0 DUP2 CALLDATALOAD SWAP1 POP PUSH2 0xE45 DUP2 PUSH2 0xE1F JUMP JUMPDEST SWAP3 SWAP2 POP POP JUMP JUMPDEST PUSH1 0x0 PUSH1 0x20 DUP3 DUP5 SUB SLT ISZERO PUSH2 0xE61 JUMPI PUSH2 0xE60 PUSH2 0x8F1 JUMP JUMPDEST JUMPDEST PUSH1 0x0 PUSH2 0xE6F DUP5 DUP3 DUP6 ADD PUSH2 0xE36 JUMP JUMPDEST SWAP2 POP POP SWAP3 SWAP2 POP POP JUMP JUMPDEST PUSH32 0x5265706F727420646F6573206E6F742065786973740000000000000000000000 PUSH1 0x0 DUP3 ADD MSTORE POP JUMP JUMPDEST PUSH1 0x0 PUSH2 0xEAE PUSH1 0x15 DUP4 PUSH2 0xD34 JUMP JUMPDEST SWAP2 POP PUSH2 0xEB9 DUP3 PUSH2 0xE78 JUMP JUMPDEST PUSH1 0x20 DUP3 ADD SWAP1 POP SWAP2 SWAP1 POP JUMP JUMPDEST PUSH1 0x0 PUSH1 0x20 DUP3 ADD SWAP1 POP DUP2 DUP2 SUB PUSH1 0x0 DUP4 ADD MSTORE PUSH2 0xEDD DUP2 PUSH2 0xEA1 JUMP JUMPDEST SWAP1 POP SWAP2 SWAP1 POP JUMP JUMPDEST PUSH32 0x4E487B7100000000000000000000000000000000000000000000000000000000 PUSH1 0x0 MSTORE PUSH1 0x32 PUSH1 0x4 MSTORE PUSH1 0x24 PUSH1 0x0 REVERT JUMPDEST PUSH32 0x4E487B7100000000000000000000000000000000000000000000000000000000 PUSH1 0x0 MSTORE PUSH1 0x22 PUSH1 0x4 MSTORE PUSH1 0x24 PUSH1 0x0 REVERT JUMPDEST PUSH1 0x0 PUSH1 0x2 DUP3 DIV SWAP1 POP PUSH1 0x1 DUP3 AND DUP1 PUSH2 0xF5A JUMPI PUSH1 0x7F DUP3 AND SWAP2 POP JUMPDEST PUSH1 0x20 DUP3 LT DUP2 SUB PUSH2 0xF6D JUMPI PUSH2 0xF6C PUSH2 0xF13 JUMP JUMPDEST JUMPDEST POP SWAP2 SWAP1 POP JUMP JUMPDEST PUSH1 0x0 DUP2 SWAP1 POP DUP2 PUSH1 0x0 MSTORE PUSH1 0x20 PUSH1 0x0 KECCAK256 SWAP1 POP SWAP2 SWAP1 POP JUMP JUMPDEST PUSH1 0x0 PUSH1 0x20 PUSH1 0x1F DUP4 ADD DIV SWAP1 POP SWAP2 SWAP1 POP JUMP JUMPDEST PUSH1 0x0 DUP3 DUP3 SHL SWAP1 POP SWAP3 SWAP2 POP POP JUMP JUMPDEST PUSH1 0x0 PUSH1 0x8 DUP4 MUL PUSH2 0xFD5 PUSH32 0xFFFFFFFFFFFFFFFFFFFFFFFFFFFFFFFFFFFFFFFFFFFFFFFFFFFFFFFFFFFFFFFF DUP3 PUSH2 0xF98 JUMP JUMPDEST PUSH2 0xFDF DUP7 DUP4 PUSH2 0xF98 JUMP JUMPDEST SWAP6 POP DUP1 NOT DUP5 AND SWAP4 POP DUP1 DUP7 AND DUP5 OR SWAP3 POP POP POP SWAP4 SWAP3 POP POP POP JUMP JUMPDEST PUSH1 0x0 DUP2 SWAP1 POP SWAP2 SWAP1 POP JUMP JUMPDEST PUSH1 0x0 PUSH2 0x101C PUSH2 0x1017 PUSH2 0x1012 DUP5 PUSH2 0x8FB JUMP JUMPDEST PUSH2 0xFF7 JUMP JUMPDEST PUSH2 0x8FB JUMP JUMPDEST SWAP1 POP SWAP2 SWAP1 POP JUMP JUMPDEST PUSH1 0x0 DUP2 SWAP1 POP SWAP2 SWAP1 POP JUMP JUMPDEST PUSH2 0x1036 DUP4 PUSH2 0x1001 JUMP JUMPDEST PUSH2 0x104A PUSH2 0x1042 DUP3 PUSH2 0x1023 JUMP JUMPDEST DUP5 DUP5 SLOAD PUSH2 0xFA5 JUMP JUMPDEST DUP3 SSTORE POP POP POP POP JUMP JUMPDEST PUSH1 0x0 SWAP1 JUMP JUMPDEST PUSH2 0x105F PUSH2 0x1052 JUMP JUMPDEST PUSH2 0x106A DUP2 DUP5 DUP5 PUSH2 0x102D JUMP JUMPDEST POP POP POP JUMP JUMPDEST JUMPDEST DUP2 DUP2 LT ISZERO PUSH2 0x108E JUMPI PUSH2 0x1083 PUSH1 0x0 DUP3 PUSH2 0x1057 JUMP JUMPDEST PUSH1 0x1 DUP2 ADD SWAP1 POP PUSH2 0x1070 JUMP JUMPDEST POP POP JUMP JUMPDEST PUSH1 0x1F DUP3 GT ISZERO PUSH2 0x10D3 JUMPI PUSH2 0x10A4 DUP2 PUSH2 0xF73 JUMP JUMPDEST PUSH2 0x10AD DUP5 PUSH2 0xF88 JUMP JUMPDEST DUP2 ADD PUSH1 0x20 DUP6 LT ISZERO PUSH2 0x10BC JUMPI DUP2 SWAP1 POP JUMPDEST PUSH2 0x10D0 PUSH2 0x10C8 DUP6 PUSH2 0xF88 JUMP JUMPDEST DUP4 ADD DUP3 PUSH2 0x106F JUMP JUMPDEST POP POP JUMPDEST POP POP POP JUMP JUMPDEST PUSH1 0x0 DUP3 DUP3 SHR SWAP1 POP SWAP3 SWAP2 POP POP JUMP JUMPDEST PUSH1 0x0 PUSH2 0x10F6 PUSH1 0x0 NOT DUP5 PUSH1 0x8 MUL PUSH2 0x10D8 JUMP JUMPDEST NOT DUP1 DUP4 AND SWAP2 POP POP SWAP3 SWAP2 POP POP JUMP JUMPDEST PUSH1 0x0 PUSH2 0x110F DUP4 DUP4 PUSH2 0x10E5 JUMP JUMPDEST SWAP2 POP DUP3 PUSH1 0x2 MUL DUP3 OR SWAP1 POP SWAP3 SWAP2 POP POP JUMP JUMPDEST PUSH2 0x1128 DUP3 PUSH2 0x95E JUMP JUMPDEST PUSH8 0xFFFFFFFFFFFFFFFF DUP2 GT ISZERO PUSH2 0x1141 JUMPI PUSH2 0x1140 PUSH2 0xB22 JUMP JUMPDEST JUMPDEST PUSH2 0x114B DUP3 SLOAD PUSH2 0xF42 JUMP JUMPDEST PUSH2 0x1156 DUP3 DUP3 DUP6 PUSH2 0x1092 JUMP JUMPDEST PUSH1 0x0 PUSH1 0x20 SWAP1 POP PUSH1 0x1F DUP4 GT PUSH1 0x1 DUP2 EQ PUSH2 0x1189 JUMPI PUSH1 0x0 DUP5 ISZERO PUSH2 0x1177 JUMPI DUP3 DUP8 ADD MLOAD SWAP1 POP JUMPDEST PUSH2 0x1181 DUP6 DUP3 PUSH2 0x1103 JUMP JUMPDEST DUP7 SSTORE POP PUSH2 0x11E9 JUMP JUMPDEST PUSH1 0x1F NOT DUP5 AND PUSH2 0x1197 DUP7 PUSH2 0xF73 JUMP JUMPDEST PUSH1 0x0 JUMPDEST DUP3 DUP2 LT ISZERO PUSH2 0x11BF JUMPI DUP5 DUP10 ADD MLOAD DUP3 SSTORE PUSH1 0x1 DUP3 ADD SWAP2 POP PUSH1 0x20 DUP6 ADD SWAP5 POP PUSH1 0x20 DUP2 ADD SWAP1 POP PUSH2 0x119A JUMP JUMPDEST DUP7 DUP4 LT ISZERO PUSH2 0x11DC JUMPI DUP5 DUP10 ADD MLOAD PUSH2 0x11D8 PUSH1 0x1F DUP10 AND DUP3 PUSH2 0x10E5 JUMP JUMPDEST DUP4 SSTORE POP JUMPDEST PUSH1 0x1 PUSH1 0x2 DUP9 MUL ADD DUP9 SSTORE POP POP POP JUMPDEST POP POP POP POP POP POP JUMP JUMPDEST PUSH32 0x4E487B7100000000000000000000000000000000000000000000000000000000 PUSH1 0x0 MSTORE PUSH1 0x11 PUSH1 0x4 MSTORE PUSH1 0x24 PUSH1 0x0 REVERT JUMPDEST PUSH1 0x0 PUSH2 0x122B DUP3 PUSH2 0x8FB JUMP JUMPDEST SWAP2 POP PUSH2 0x1236 DUP4 PUSH2 0x8FB JUMP JUMPDEST SWAP3 POP DUP3 DUP3 SUB SWAP1 POP DUP2 DUP2 GT ISZERO PUSH2 0x124E JUMPI PUSH2 0x124D PUSH2 0x11F1 JUMP JUMPDEST JUMPDEST SWAP3 SWAP2 POP POP JUMP JUMPDEST PUSH1 0x0 PUSH1 0x80 DUP3 ADD SWAP1 POP DUP2 DUP2 SUB PUSH1 0x0 DUP4 ADD MSTORE PUSH2 0x126E DUP2 DUP8 PUSH2 0xD45 JUMP JUMPDEST SWAP1 POP DUP2 DUP2 SUB PUSH1 0x20 DUP4 ADD MSTORE PUSH2 0x1282 DUP2 DUP7 PUSH2 0xD45 JUMP JUMPDEST SWAP1 POP PUSH2 0x1291 PUSH1 0x40 DUP4 ADD DUP6 PUSH2 0xD7E JUMP JUMPDEST PUSH2 0x129E PUSH1 0x60 DUP4 ADD DUP5 PUSH2 0xD8D JUMP JUMPDEST SWAP6 SWAP5 POP POP POP POP POP JUMP INVALID LOG2 PUSH5 0x6970667358 0x22 SLT KECCAK256 LOG4 RETURNDATACOPY 0xE7 0xE4 LOG2 0xC0 0x2B 0xAB DUP5 PUSH15 0xF5BE0F9FB4EAB3726490EAD56DA7B9 0x5D SWAP14 0x49 INVALID 0xE8 ADD 0x23 PUSH5 0x736F6C6343 STOP ADDMOD EQ STOP CALLER "},"methodIdentifiers":{"addReport(string,string,int256,string)":"a5b5ec6f","getReport(uint256)":"4e7f9b19","getReportCount()":"cad9642b","owner()":"8da5cb5b","renounceOwnership()":"715018a6","reports(uint256)":"c942adf7","transferOwnership(address)":"f2fde38b"}}}}}