{
  "_format": "hh-sol-artifact-1",
  "contractName": "RugPullVerifier",
  "sourceName": "contracts/RugPullVerifier.sol",
  "abi": [
    {
      "inputs": [
        {
          "internalType": "address",
          "name": "_stateConnector",
          "type": "address"
        }
      ],
      "stateMutability": "nonpayable",
      "type": "constructor"
    },
    {
      "anonymous": false,
      "inputs": [
        {
          "indexed": true,
          "internalType": "string",
          "name": "transactionHash",
          "type": "string"
        },
        {
          "indexed": false,
          "internalType": "string",
          "name": "riskHash",
          "type": "string"
        },
        {
          "indexed": false,
          "internalType": "uint256",
          "name": "timestamp",
          "type": "uint256"
        },
        {
          "indexed": false,
          "internalType": "bool",
          "name": "verified",
          "type": "bool"
        }
      ],
      "name": "RiskReportStored",
      "type": "event"
    },
    {
      "anonymous": false,
      "inputs": [
        {
          "indexed": false,
          "internalType": "string",
          "name": "transactionHash",
          "type": "string"
        },
        {
          "indexed": false,
          "internalType": "bytes32",
          "name": "requestId",
          "type": "bytes32"
        }
      ],
      "name": "VerificationRequested",
      "type": "event"
    },
    {
      "inputs": [
        {
          "internalType": "string",
          "name": "_transactionHash",
          "type": "string"
        }
      ],
      "name": "confirmVerification",
      "outputs": [],
      "stateMutability": "nonpayable",
      "type": "function"
    },
    {
      "inputs": [
        {
          "internalType": "string",
          "name": "_transactionHash",
          "type": "string"
        }
      ],
      "name": "getRiskReport",
      "outputs": [
        {
          "internalType": "string",
          "name": "",
          "type": "string"
        },
        {
          "internalType": "uint256",
          "name": "",
          "type": "uint256"
        },
        {
          "internalType": "bool",
          "name": "",
          "type": "bool"
        }
      ],
      "stateMutability": "view",
      "type": "function"
    },
    {
      "inputs": [
        {
          "internalType": "string",
          "name": "",
          "type": "string"
        }
      ],
      "name": "riskReports",
      "outputs": [
        {
          "internalType": "string",
          "name": "transactionHash",
          "type": "string"
        },
        {
          "internalType": "string",
          "name": "riskHash",
          "type": "string"
        },
        {
          "internalType": "uint256",
          "name": "timestamp",
          "type": "uint256"
        },
        {
          "internalType": "bool",
          "name": "verifiedByFlare",
          "type": "bool"
        }
      ],
      "stateMutability": "view",
      "type": "function"
    },
    {
      "inputs": [],
      "name": "stateConnector",
      "outputs": [
        {
          "internalType": "address",
          "name": "",
          "type": "address"
        }
      ],
      "stateMutability": "view",
      "type": "function"
    },
    {
      "inputs": [
        {
          "internalType": "string",
          "name": "_transactionHash",
          "type": "string"
        },
        {
          "internalType": "string",
          "name": "_riskHash",
          "type": "string"
        }
      ],
      "name": "storeAuditResult",
      "outputs": [],
      "stateMutability": "nonpayable",
      "type": "function"
    }
  ],
  "bytecode": "0x60806040523480156200001157600080fd5b5060405162001081380380620010818339818101604052810190620000379190620000e9565b80600160006101000a81548173ffffffffffffffffffffffffffffffffffffffff021916908373ffffffffffffffffffffffffffffffffffffffff160217905550506200011b565b600080fd5b600073ffffffffffffffffffffffffffffffffffffffff82169050919050565b6000620000b18262000084565b9050919050565b620000c381620000a4565b8114620000cf57600080fd5b50565b600081519050620000e381620000b8565b92915050565b6000602082840312156200010257620001016200007f565b5b60006200011284828501620000d2565b91505092915050565b610f56806200012b6000396000f3fe608060405234801561001057600080fd5b50600436106100575760003560e01c8063025ecb321461005c57806308ede6a61461007a57806323b1d2c21461009657806336c1c973146100c8578063bde03d86146100fb575b600080fd5b610064610117565b60405161007191906106d9565b60405180910390f35b610094600480360381019061008f919061084e565b61013d565b005b6100b060048036038101906100ab919061084e565b6101e9565b6040516100bf9392919061094a565b60405180910390f35b6100e260048036038101906100dd919061084e565b6102f9565b6040516100f29493929190610988565b60405180910390f35b610115600480360381019061011091906109db565b61045c565b005b600160009054906101000a900473ffffffffffffffffffffffffffffffffffffffff1681565b6000808260405161014e9190610a8f565b9081526020016040518091039020600001805461016a90610ad5565b9050116101ac576040517f08c379a00000000000000000000000000000000000000000000000000000000081526004016101a390610b52565b60405180910390fd5b60016000826040516101be9190610a8f565b908152602001604051809103902060030160006101000a81548160ff02191690831515021790555050565b60606000806000846040516101fe9190610a8f565b908152602001604051809103902060010160008560405161021f9190610a8f565b9081526020016040518091039020600201546000866040516102419190610a8f565b908152602001604051809103902060030160009054906101000a900460ff1682805461026c90610ad5565b80601f016020809104026020016040519081016040528092919081815260200182805461029890610ad5565b80156102e55780601f106102ba576101008083540402835291602001916102e5565b820191906000526020600020905b8154815290600101906020018083116102c857829003601f168201915b505050505092509250925092509193909250565b60008180516020810182018051848252602083016020850120818352809550505050505060009150905080600001805461033290610ad5565b80601f016020809104026020016040519081016040528092919081815260200182805461035e90610ad5565b80156103ab5780601f10610380576101008083540402835291602001916103ab565b820191906000526020600020905b81548152906001019060200180831161038e57829003601f168201915b5050505050908060010180546103c090610ad5565b80601f01602080910402602001604051908101604052809291908181526020018280546103ec90610ad5565b80156104395780601f1061040e57610100808354040283529160200191610439565b820191906000526020600020905b81548152906001019060200180831161041c57829003601f168201915b5050505050908060020154908060030160009054906101000a900460ff16905084565b6000808360405161046d9190610a8f565b9081526020016040518091039020600001805461048990610ad5565b9050146104cb576040517f08c379a00000000000000000000000000000000000000000000000000000000081526004016104c290610bbe565b60405180910390fd5b6000600160009054906101000a900473ffffffffffffffffffffffffffffffffffffffff1673ffffffffffffffffffffffffffffffffffffffff16636cbff42a846040518263ffffffff1660e01b81526004016105289190610bde565b6020604051808303816000875af1158015610547573d6000803e3d6000fd5b505050506040513d601f19601f8201168201806040525081019061056b9190610c36565b90507fcb4efc405b00543d057b47dbeaf4292cbb3b07be86fbeaa9d4afd6080ec711da838260405161059e929190610c72565b60405180910390a16040518060800160405280848152602001838152602001428152602001600015158152506000846040516105da9190610a8f565b908152602001604051809103902060008201518160000190816105fd9190610e4e565b5060208201518160010190816106139190610e4e565b506040820151816002015560608201518160030160006101000a81548160ff0219169083151502179055509050508260405161064f9190610a8f565b60405180910390207f5612346dc6ac3a8321e455000733e54e2883e218f4adcd8880d499df9b39e3c98342600060405161068b9392919061094a565b60405180910390a2505050565b600073ffffffffffffffffffffffffffffffffffffffff82169050919050565b60006106c382610698565b9050919050565b6106d3816106b8565b82525050565b60006020820190506106ee60008301846106ca565b92915050565b6000604051905090565b600080fd5b600080fd5b600080fd5b600080fd5b6000601f19601f8301169050919050565b7f4e487b7100000000000000000000000000000000000000000000000000000000600052604160045260246000fd5b61075b82610712565b810181811067ffffffffffffffff8211171561077a57610779610723565b5b80604052505050565b600061078d6106f4565b90506107998282610752565b919050565b600067ffffffffffffffff8211156107b9576107b8610723565b5b6107c282610712565b9050602081019050919050565b82818337600083830152505050565b60006107f16107ec8461079e565b610783565b90508281526020810184848401111561080d5761080c61070d565b5b6108188482856107cf565b509392505050565b600082601f83011261083557610834610708565b5b81356108458482602086016107de565b91505092915050565b600060208284031215610864576108636106fe565b5b600082013567ffffffffffffffff81111561088257610881610703565b5b61088e84828501610820565b91505092915050565b600081519050919050565b600082825260208201905092915050565b60005b838110156108d15780820151818401526020810190506108b6565b60008484015250505050565b60006108e882610897565b6108f281856108a2565b93506109028185602086016108b3565b61090b81610712565b840191505092915050565b6000819050919050565b61092981610916565b82525050565b60008115159050919050565b6109448161092f565b82525050565b6000606082019050818103600083015261096481866108dd565b90506109736020830185610920565b610980604083018461093b565b949350505050565b600060808201905081810360008301526109a281876108dd565b905081810360208301526109b681866108dd565b90506109c56040830185610920565b6109d2606083018461093b565b95945050505050565b600080604083850312156109f2576109f16106fe565b5b600083013567ffffffffffffffff811115610a1057610a0f610703565b5b610a1c85828601610820565b925050602083013567ffffffffffffffff811115610a3d57610a3c610703565b5b610a4985828601610820565b9150509250929050565b600081905092915050565b6000610a6982610897565b610a738185610a53565b9350610a838185602086016108b3565b80840191505092915050565b6000610a9b8284610a5e565b915081905092915050565b7f4e487b7100000000000000000000000000000000000000000000000000000000600052602260045260246000fd5b60006002820490506001821680610aed57607f821691505b602082108103610b0057610aff610aa6565b5b50919050565b7f5472616e73616374696f6e206e6f7420666f756e640000000000000000000000600082015250565b6000610b3c6015836108a2565b9150610b4782610b06565b602082019050919050565b60006020820190508181036000830152610b6b81610b2f565b9050919050565b7f5472616e73616374696f6e20616c726561647920766572696669656400000000600082015250565b6000610ba8601c836108a2565b9150610bb382610b72565b602082019050919050565b60006020820190508181036000830152610bd781610b9b565b9050919050565b60006020820190508181036000830152610bf881846108dd565b905092915050565b6000819050919050565b610c1381610c00565b8114610c1e57600080fd5b50565b600081519050610c3081610c0a565b92915050565b600060208284031215610c4c57610c4b6106fe565b5b6000610c5a84828501610c21565b91505092915050565b610c6c81610c00565b82525050565b60006040820190508181036000830152610c8c81856108dd565b9050610c9b6020830184610c63565b9392505050565b60008190508160005260206000209050919050565b60006020601f8301049050919050565b600082821b905092915050565b600060088302610d047fffffffffffffffffffffffffffffffffffffffffffffffffffffffffffffffff82610cc7565b610d0e8683610cc7565b95508019841693508086168417925050509392505050565b6000819050919050565b6000610d4b610d46610d4184610916565b610d26565b610916565b9050919050565b6000819050919050565b610d6583610d30565b610d79610d7182610d52565b848454610cd4565b825550505050565b600090565b610d8e610d81565b610d99818484610d5c565b505050565b5b81811015610dbd57610db2600082610d86565b600181019050610d9f565b5050565b601f821115610e0257610dd381610ca2565b610ddc84610cb7565b81016020851015610deb578190505b610dff610df785610cb7565b830182610d9e565b50505b505050565b600082821c905092915050565b6000610e2560001984600802610e07565b1980831691505092915050565b6000610e3e8383610e14565b9150826002028217905092915050565b610e5782610897565b67ffffffffffffffff811115610e7057610e6f610723565b5b610e7a8254610ad5565b610e85828285610dc1565b600060209050601f831160018114610eb85760008415610ea6578287015190505b610eb08582610e32565b865550610f18565b601f198416610ec686610ca2565b60005b82811015610eee57848901518255600182019150602085019450602081019050610ec9565b86831015610f0b5784890151610f07601f891682610e14565b8355505b6001600288020188555050505b50505050505056fea26469706673582212201ef2fe463c7721a678456aef694f919259ade3b6431f0de6f0c865c07a1fe8c264736f6c63430008140033",
  "linkReferences": {},
  "deployedLinkReferences": {}
}