{
  "_format": "hh-sol-artifact-1",
  "contractName": "DeFiAuditReport",
  "sourceName": "contracts/DeFiAuditReport.sol",
  "abi": [
    {
      "inputs": [],
      "stateMutability": "nonpayable",
      "type": "constructor"
    },
    {
      "inputs": [
        {
          "internalType": "address",
          "name": "owner",
          "type": "address"
        }
      ],
      "name": "OwnableInvalidOwner",
      "type": "error"
    },
    {
      "inputs": [
        {
          "internalType": "address",
          "name": "account",
          "type": "address"
        }
      ],
      "name": "OwnableUnauthorizedAccount",
      "type": "error"
    },
    {
      "anonymous": false,
      "inputs": [
        {
          "indexed": true,
          "internalType": "address",
          "name": "previousOwner",
          "type": "address"
        },
        {
          "indexed": true,
          "internalType": "address",
          "name": "newOwner",
          "type": "address"
        }
      ],
      "name": "OwnershipTransferred",
      "type": "event"
    },
    {
      "anonymous": false,
      "inputs": [
        {
          "indexed": true,
          "internalType": "uint256",
          "name": "reportId",
          "type": "uint256"
        },
        {
          "indexed": false,
          "internalType": "string",
          "name": "token0",
          "type": "string"
        },
        {
          "indexed": false,
          "internalType": "string",
          "name": "token1",
          "type": "string"
        },
        {
          "indexed": false,
          "internalType": "int256",
          "name": "changePercentage",
          "type": "int256"
        },
        {
          "indexed": false,
          "internalType": "uint256",
          "name": "timestamp",
          "type": "uint256"
        }
      ],
      "name": "ReportAdded",
      "type": "event"
    },
    {
      "inputs": [
        {
          "internalType": "string",
          "name": "token0",
          "type": "string"
        },
        {
          "internalType": "string",
          "name": "token1",
          "type": "string"
        },
        {
          "internalType": "int256",
          "name": "changePercentage",
          "type": "int256"
        },
        {
          "internalType": "string",
          "name": "aiAnalysis",
          "type": "string"
        }
      ],
      "name": "addReport",
      "outputs": [],
      "stateMutability": "nonpayable",
      "type": "function"
    },
    {
      "inputs": [
        {
          "internalType": "uint256",
          "name": "reportId",
          "type": "uint256"
        }
      ],
      "name": "getReport",
      "outputs": [
        {
          "components": [
            {
              "internalType": "string",
              "name": "token0",
              "type": "string"
            },
            {
              "internalType": "string",
              "name": "token1",
              "type": "string"
            },
            {
              "internalType": "int256",
              "name": "changePercentage",
              "type": "int256"
            },
            {
              "internalType": "string",
              "name": "aiAnalysis",
              "type": "string"
            },
            {
              "internalType": "uint256",
              "name": "timestamp",
              "type": "uint256"
            }
          ],
          "internalType": "struct DeFiAuditReport.AuditReport",
          "name": "",
          "type": "tuple"
        }
      ],
      "stateMutability": "view",
      "type": "function"
    },
    {
      "inputs": [],
      "name": "getReportCount",
      "outputs": [
        {
          "internalType": "uint256",
          "name": "",
          "type": "uint256"
        }
      ],
      "stateMutability": "view",
      "type": "function"
    },
    {
      "inputs": [],
      "name": "owner",
      "outputs": [
        {
          "internalType": "address",
          "name": "",
          "type": "address"
        }
      ],
      "stateMutability": "view",
      "type": "function"
    },
    {
      "inputs": [],
      "name": "renounceOwnership",
      "outputs": [],
      "stateMutability": "nonpayable",
      "type": "function"
    },
    {
      "inputs": [
        {
          "internalType": "uint256",
          "name": "",
          "type": "uint256"
        }
      ],
      "name": "reports",
      "outputs": [
        {
          "internalType": "string",
          "name": "token0",
          "type": "string"
        },
        {
          "internalType": "string",
          "name": "token1",
          "type": "string"
        },
        {
          "internalType": "int256",
          "name": "changePercentage",
          "type": "int256"
        },
        {
          "internalType": "string",
          "name": "aiAnalysis",
          "type": "string"
        },
        {
          "internalType": "uint256",
          "name": "timestamp",
          "type": "uint256"
        }
      ],
      "stateMutability": "view",
      "type": "function"
    },
    {
      "inputs": [
        {
          "internalType": "address",
          "name": "newOwner",
          "type": "address"
        }
      ],
      "name": "transferOwnership",
      "outputs": [],
      "stateMutability": "nonpayable",
      "type": "function"
    }
  ],
  "bytecode": "0x60806040523480156200001157600080fd5b5033600073ffffffffffffffffffffffffffffffffffffffff168173ffffffffffffffffffffffffffffffffffffffff1603620000885760006040517f1e4fbdf70000000000000000000000000000000000000000000000000000000081526004016200007f9190620001a9565b60405180910390fd5b6200009981620000a060201b60201c565b50620001c6565b60008060009054906101000a900473ffffffffffffffffffffffffffffffffffffffff169050816000806101000a81548173ffffffffffffffffffffffffffffffffffffffff021916908373ffffffffffffffffffffffffffffffffffffffff1602179055508173ffffffffffffffffffffffffffffffffffffffff168173ffffffffffffffffffffffffffffffffffffffff167f8be0079c531659141344cd1fd0a4f28419497f9722a3daafe3b4186f6b6457e060405160405180910390a35050565b600073ffffffffffffffffffffffffffffffffffffffff82169050919050565b6000620001918262000164565b9050919050565b620001a38162000184565b82525050565b6000602082019050620001c0600083018462000198565b92915050565b6112dd80620001d66000396000f3fe608060405234801561001057600080fd5b506004361061007d5760003560e01c8063a5b5ec6f1161005b578063a5b5ec6f146100da578063c942adf7146100f6578063cad9642b1461012a578063f2fde38b146101485761007d565b80634e7f9b1914610082578063715018a6146100b25780638da5cb5b146100bc575b600080fd5b61009c60048036038101906100979190610931565b610164565b6040516100a99190610a9a565b60405180910390f35b6100ba6103b1565b005b6100c46103c5565b6040516100d19190610afd565b60405180910390f35b6100f460048036038101906100ef9190610c79565b6103ee565b005b610110600480360381019061010b9190610931565b6104f4565b604051610121959493929190610d9c565b60405180910390f35b6101326106d2565b60405161013f9190610e04565b60405180910390f35b610162600480360381019061015d9190610e4b565b6106df565b005b61016c6108b8565b60018054905082106101b3576040517f08c379a00000000000000000000000000000000000000000000000000000000081526004016101aa90610ec4565b60405180910390fd5b600182815481106101c7576101c6610ee4565b5b90600052602060002090600502016040518060a00160405290816000820180546101f090610f42565b80601f016020809104026020016040519081016040528092919081815260200182805461021c90610f42565b80156102695780601f1061023e57610100808354040283529160200191610269565b820191906000526020600020905b81548152906001019060200180831161024c57829003601f168201915b5050505050815260200160018201805461028290610f42565b80601f01602080910402602001604051908101604052809291908181526020018280546102ae90610f42565b80156102fb5780601f106102d0576101008083540402835291602001916102fb565b820191906000526020600020905b8154815290600101906020018083116102de57829003601f168201915b505050505081526020016002820154815260200160038201805461031e90610f42565b80601f016020809104026020016040519081016040528092919081815260200182805461034a90610f42565b80156103975780601f1061036c57610100808354040283529160200191610397565b820191906000526020600020905b81548152906001019060200180831161037a57829003601f168201915b505050505081526020016004820154815250509050919050565b6103b9610765565b6103c360006107ec565b565b60008060009054906101000a900473ffffffffffffffffffffffffffffffffffffffff16905090565b6103f6610765565b60016040518060a00160405280868152602001858152602001848152602001838152602001428152509080600181540180825580915050600190039060005260206000209060050201600090919091909150600082015181600001908161045d919061111f565b506020820151816001019081610473919061111f565b50604082015181600201556060820151816003019081610493919061111f565b50608082015181600401555050600180805490506104b19190611220565b7ffaa56fc5c837c66057b1d988ecbc6a666c309b8926007616dab2dae694aa78b3858585426040516104e69493929190611254565b60405180910390a250505050565b6001818154811061050457600080fd5b906000526020600020906005020160009150905080600001805461052790610f42565b80601f016020809104026020016040519081016040528092919081815260200182805461055390610f42565b80156105a05780601f10610575576101008083540402835291602001916105a0565b820191906000526020600020905b81548152906001019060200180831161058357829003601f168201915b5050505050908060010180546105b590610f42565b80601f01602080910402602001604051908101604052809291908181526020018280546105e190610f42565b801561062e5780601f106106035761010080835404028352916020019161062e565b820191906000526020600020905b81548152906001019060200180831161061157829003601f168201915b50505050509080600201549080600301805461064990610f42565b80601f016020809104026020016040519081016040528092919081815260200182805461067590610f42565b80156106c25780601f10610697576101008083540402835291602001916106c2565b820191906000526020600020905b8154815290600101906020018083116106a557829003601f168201915b5050505050908060040154905085565b6000600180549050905090565b6106e7610765565b600073ffffffffffffffffffffffffffffffffffffffff168173ffffffffffffffffffffffffffffffffffffffff16036107595760006040517f1e4fbdf70000000000000000000000000000000000000000000000000000000081526004016107509190610afd565b60405180910390fd5b610762816107ec565b50565b61076d6108b0565b73ffffffffffffffffffffffffffffffffffffffff1661078b6103c5565b73ffffffffffffffffffffffffffffffffffffffff16146107ea576107ae6108b0565b6040517f118cdaa70000000000000000000000000000000000000000000000000000000081526004016107e19190610afd565b60405180910390fd5b565b60008060009054906101000a900473ffffffffffffffffffffffffffffffffffffffff169050816000806101000a81548173ffffffffffffffffffffffffffffffffffffffff021916908373ffffffffffffffffffffffffffffffffffffffff1602179055508173ffffffffffffffffffffffffffffffffffffffff168173ffffffffffffffffffffffffffffffffffffffff167f8be0079c531659141344cd1fd0a4f28419497f9722a3daafe3b4186f6b6457e060405160405180910390a35050565b600033905090565b6040518060a0016040528060608152602001606081526020016000815260200160608152602001600081525090565b6000604051905090565b600080fd5b600080fd5b6000819050919050565b61090e816108fb565b811461091957600080fd5b50565b60008135905061092b81610905565b92915050565b600060208284031215610947576109466108f1565b5b60006109558482850161091c565b91505092915050565b600081519050919050565b600082825260208201905092915050565b60005b8381101561099857808201518184015260208101905061097d565b60008484015250505050565b6000601f19601f8301169050919050565b60006109c08261095e565b6109ca8185610969565b93506109da81856020860161097a565b6109e3816109a4565b840191505092915050565b6000819050919050565b610a01816109ee565b82525050565b610a10816108fb565b82525050565b600060a0830160008301518482036000860152610a3382826109b5565b91505060208301518482036020860152610a4d82826109b5565b9150506040830151610a6260408601826109f8565b5060608301518482036060860152610a7a82826109b5565b9150506080830151610a8f6080860182610a07565b508091505092915050565b60006020820190508181036000830152610ab48184610a16565b905092915050565b600073ffffffffffffffffffffffffffffffffffffffff82169050919050565b6000610ae782610abc565b9050919050565b610af781610adc565b82525050565b6000602082019050610b126000830184610aee565b92915050565b600080fd5b600080fd5b7f4e487b7100000000000000000000000000000000000000000000000000000000600052604160045260246000fd5b610b5a826109a4565b810181811067ffffffffffffffff82111715610b7957610b78610b22565b5b80604052505050565b6000610b8c6108e7565b9050610b988282610b51565b919050565b600067ffffffffffffffff821115610bb857610bb7610b22565b5b610bc1826109a4565b9050602081019050919050565b82818337600083830152505050565b6000610bf0610beb84610b9d565b610b82565b905082815260208101848484011115610c0c57610c0b610b1d565b5b610c17848285610bce565b509392505050565b600082601f830112610c3457610c33610b18565b5b8135610c44848260208601610bdd565b91505092915050565b610c56816109ee565b8114610c6157600080fd5b50565b600081359050610c7381610c4d565b92915050565b60008060008060808587031215610c9357610c926108f1565b5b600085013567ffffffffffffffff811115610cb157610cb06108f6565b5b610cbd87828801610c1f565b945050602085013567ffffffffffffffff811115610cde57610cdd6108f6565b5b610cea87828801610c1f565b9350506040610cfb87828801610c64565b925050606085013567ffffffffffffffff811115610d1c57610d1b6108f6565b5b610d2887828801610c1f565b91505092959194509250565b600082825260208201905092915050565b6000610d508261095e565b610d5a8185610d34565b9350610d6a81856020860161097a565b610d73816109a4565b840191505092915050565b610d87816109ee565b82525050565b610d96816108fb565b82525050565b600060a0820190508181036000830152610db68188610d45565b90508181036020830152610dca8187610d45565b9050610dd96040830186610d7e565b8181036060830152610deb8185610d45565b9050610dfa6080830184610d8d565b9695505050505050565b6000602082019050610e196000830184610d8d565b92915050565b610e2881610adc565b8114610e3357600080fd5b50565b600081359050610e4581610e1f565b92915050565b600060208284031215610e6157610e606108f1565b5b6000610e6f84828501610e36565b91505092915050565b7f5265706f727420646f6573206e6f742065786973740000000000000000000000600082015250565b6000610eae601583610d34565b9150610eb982610e78565b602082019050919050565b60006020820190508181036000830152610edd81610ea1565b9050919050565b7f4e487b7100000000000000000000000000000000000000000000000000000000600052603260045260246000fd5b7f4e487b7100000000000000000000000000000000000000000000000000000000600052602260045260246000fd5b60006002820490506001821680610f5a57607f821691505b602082108103610f6d57610f6c610f13565b5b50919050565b60008190508160005260206000209050919050565b60006020601f8301049050919050565b600082821b905092915050565b600060088302610fd57fffffffffffffffffffffffffffffffffffffffffffffffffffffffffffffffff82610f98565b610fdf8683610f98565b95508019841693508086168417925050509392505050565b6000819050919050565b600061101c611017611012846108fb565b610ff7565b6108fb565b9050919050565b6000819050919050565b61103683611001565b61104a61104282611023565b848454610fa5565b825550505050565b600090565b61105f611052565b61106a81848461102d565b505050565b5b8181101561108e57611083600082611057565b600181019050611070565b5050565b601f8211156110d3576110a481610f73565b6110ad84610f88565b810160208510156110bc578190505b6110d06110c885610f88565b83018261106f565b50505b505050565b600082821c905092915050565b60006110f6600019846008026110d8565b1980831691505092915050565b600061110f83836110e5565b9150826002028217905092915050565b6111288261095e565b67ffffffffffffffff81111561114157611140610b22565b5b61114b8254610f42565b611156828285611092565b600060209050601f8311600181146111895760008415611177578287015190505b6111818582611103565b8655506111e9565b601f19841661119786610f73565b60005b828110156111bf5784890151825560018201915060208501945060208101905061119a565b868310156111dc57848901516111d8601f8916826110e5565b8355505b6001600288020188555050505b505050505050565b7f4e487b7100000000000000000000000000000000000000000000000000000000600052601160045260246000fd5b600061122b826108fb565b9150611236836108fb565b925082820390508181111561124e5761124d6111f1565b5b92915050565b6000608082019050818103600083015261126e8187610d45565b905081810360208301526112828186610d45565b90506112916040830185610d7e565b61129e6060830184610d8d565b9594505050505056fea2646970667358221220a43ee7e4a2c02bab846ef5be0f9fb4eab3726490ead56da7b95d9d49fee8012364736f6c63430008140033",
  "linkReferences": {},
  "deployedLinkReferences": {}
}